:020000021000EC
:10F00000000001202DF7020055F7020057F702001B
:10F0100059F702005BF702005DF7020000000000F4
:10F020000000000000000000000000005FF7020088
:10F0300061F702000000000063F7020065F70200BC
:10F04000F142020067F70200C962020067F702009E
:10F0500067F7020067F70200294D020067F7020018
:10F0600067F7020067F7020067F7020067F7020020
:10F0700067F7020067F7020067F7020067F7020010
:10F0800067F702004113020067F7020067F702000A
:10F090008113020067F70200151F030067F70200E3
:10F0A00067F7020067F7020067F7020067F70200E0
:10F0B00067F7020067F70200000000000000000090
:10F0C00067F7020067F7020067F7020067F70200C0
:10F0D00067F7020067F7020067F702000000000010
:10F0E0000000000000000000000000000000000020
:10F0F0000000000000000000000000000000000010
:10F1000000000000000000000000000000000000FF
:10F1100000000000000000000000000000000000EF
:10F1200000000000000000000000000000000000DF
:10F1300000000000000000000000000000000000CF
:10F1400000000000000000000000000000000000BF
:10F1500000000000000000000000000000000000AF
:10F16000000000000000000000000000000000009F
:10F17000000000000000000000000000000000008F
:10F18000000000000000000000000000000000007F
:10F19000000000000000000000000000000000006F
:10F1A000000000000000000000000000000000005F
:10F1B000000000000000000000000000000000004F
:10F1C000000000000000000000000000000000003F
:10F1D000000000000000000000000000000000002F
:10F1E000000000000000000000000000000000001F
:10F1F000000000000000000000000000000000000F
:10F2000010B5054C237833B9044B13B10448AFF360
:10F2100000800123237010BD602200200000000048
:10F22000E03303000C4B43B10C480D4910B5AFF36C
:10F2300000800C48036823B910BD0A48036833B93D
:10F240007047094B002BF7D0BDE810401847064B1C
:10F25000002BF5D0184700BF00000000E03303008A
:10F26000642200204C22002000000000154B002BDF
:10F2700008BF134B9D46A3F5803A00218B460F46ED
:10F280001348144A121A00F063F80F4B002B00D0F9
:10F2900098470E4B002B00D0984700200021040017
:10F2A0000D000D48002802D00C48AFF3008000F09C
:10F2B0002BF82000290008F0E1FF00F011F800BF52
:10F2C0000000080000000120000000000000000015
:10F2D000602200202836002000000000000000000E
:10F2E00008B5074B044613B10021AFF30080054B6E
:10F2F0001868836A03B19847204600F031F800BFD0
:10F3000000000000342D030070B50D4E0D4CA41B01
:10F31000A4100025A54209D10B4E0C4C13F0FEFCA5
:10F32000A41BA4100025A54205D170BD56F82530B8
:10F3300098470135EEE756F8253098470135F2E752
:10F3400044220020442200204422002048220020A1
:10F3500002440346934200D1704703F8011BF9E7CA
:10F36000FEE700BF80B483B000AF786039607B688F
:10F370001B78012B02D1044B01221A7000BF0C37FD
:10F38000BD465DF8047B70477E230020B0B58CB08D
:10F3900000AF0346FB71214B1B78002B06D0204B9E
:10F3A0001B78FA799A4201D1002333E01D4B07F113
:10F3B0000C041D460FCD0FC495E80F0084E80F0024
:10F3C000002387F820300623FB6008233B610523D8
:10F3D000BB6107237B614FF0EB737B62124806F041
:10F3E00003FCFB79002B01D0002200E00F4A07F15B
:10F3F0000C0319460C4806F0AFFBF862FB6A002BC1
:10F4000001D0FB6A06E0054B01221A70044AFB7921
:10F410001370002318463037BD46B0BD7C23002052
:10F420007D230020382D03002420002065F30100F7
:10F4300080B582B000AF0023FB71054806F036FDB1
:10F440000346FB71FB7918460837BD4680BD00BFF7
:10F450002420002080B584B000AF7860396001239B
:10F46000FB733A6879680A4812F0B5FF3B68DBB273
:10F470001A460749074806F0CBFCB860BB68002B6A
:10F4800001D00023FB73FB7B18461037BD4680BDBF
:10F490007C2200202420002080B485B000AF78605A
:10F4A00039603B68002B02DA0023FB7307E07B68BE
:10F4B0001A683B681A447B681A600123FB73FB7B64
:10F4C00018461437BD465DF8047B704780B586B09A
:10F4D00000AFF860B9607A6000233B610123FB75DF
:10F4E000FB68002B11D03B69BA68D018FB681B6819
:10F4F0000A4A4FF4807112F079FF386139697868EF
:10F50000FFF7CAFF0346FB7502E07B6800221A6022
:10F51000FB7D18461837BD4680BD00BF582D03003F
:10F52000F0B5D1B006AF044607F11000016007F155
:10F530000C010A6007F10802136007F11703224665
:10F540001A700023C7F8243107F1180300221A604B
:10F55000012387F82331FFF76BFF0346002B01D00F
:10F56000002363E107F118031B6807F11C02D1189F
:10F5700007F1180207F110031868FFF7A7FF034609
:10F5800083F00103DBB2002B01D000234EE1D7F85A
:10F590004031062B00F2238101A252F823F000BF74
:10F5A000BDF50100FBF5010029F6010065F601003B
:10F5B000AFF6010007F701006DF7010007F10C033A
:10F5C000186812F047FF0346C7F82431D7F8242102
:10F5D00007F118031B681344FF2B00F2028107F1A7
:10F5E00018031B6807F11C02D018D7F8242107F173
:10F5F0000C03196812F0EFFEF3E007F118031B6823
:10F6000007F11C02D01807F118031B68C3F58071BD
:10F6100007F108031B681B6807F10C02126812F05F
:10F62000E5FEC7F82401DDE007F118031B6807F1C8
:10F630001C02D01807F118031B68C3F5807107F18D
:10F6400008031B681C6807F108031B6804331B6868
:10F6500007F10C0200932346126812F0C7FEC7F8A8
:10F660002401BFE007F118031B6807F11C02D01842
:10F6700007F118031B68C3F5807407F108031B68C2
:10F680001D6807F108031B6804331B6807F10802B3
:10F6900012680832116807F10C02019100932B46A1
:10F6A0001268214612F0A2FEC7F824019AE007F181
:10F6B00018031B6807F11C02D41807F118031B6814
:10F6C000C3F5807507F108031B681E6807F108037E
:10F6D0001B6804331B6807F10802126808321168BE
:10F6E00007F1080212680C32106807F10C02029050
:10F6F00001910093334612682946204612F076FEA7
:10F70000C7F824016EE007F118031B6807F11C021B
:10F71000D51807F118031B68C3F5807607F10803B5
:10F720001B681B687B6007F108031B6804331B68B8
:10F7300007F1080212680832116807F1080212681E
:10F740000C32106807F1080212681032146807F1D1
:10F750000C0203940290019100937B681268314679
:10F76000284612F043FEC7F824013BE007F11803D6
:10F770001B6807F11C02D61807F118031B68C3F5B4
:10F78000807E07F108031B681B687B6007F1080394
:10F790001B6804331B6807F10802126808321168FD
:10F7A00007F1080212680C32106807F108021268AB
:10F7B0001032146807F1080212681432156807F154
:10F7C0000C02049503940290019100937B681268E7
:10F7D0007146304612F00AFEC7F8240102E000BF6D
:10F7E00000E000BF07F11803D7F824111846FFF70F
:10F7F00053FE034687F8233107F118031B68C7F847
:10F800001C3197F82331002B0FD0D7F81C31B3F5FA
:10F81000807F0AD807F118031A6807F11C03114604
:10F820001846FFF717FE034600E00023184607F5C9
:10F830009677BD46F0BD00BF80B485B000AF0346EB
:10F840003960FB710223FB6018E0FA79FB689B00CA
:10F8500042FA03F3DBB203F00F03FB72FB68C3F160
:10F8600001033A681A44FB7A092B03D9FB7A373330
:10F87000DBB202E0FB7A3033DBB21370FB685A1E56
:10F88000FA60002BE1D100BF1437BD465DF8047B60
:10F89000704790B5D1B000AF044607F10800016091
:10F8A000391D0A603A46136007F10F0322461A70A9
:10F8B00007F1100300221A603B461B68C7F82C3181
:10F8C000D7F85421D7F85C311344C7F8243107F135
:10F8D00008031B68002B01D00A2300E00023C7F8AF
:10F8E0002031FFF7A5FD0346002B02D03B461B68E5
:10F8F0002DE13B461B68002B37D107F110031B6835
:10F9000007F11402D11807F1100207F10803186873
:10F91000FFF7DCFD034683F00103DBB2002B02D0CE
:10F920003B461B6813E13B1D186812F093FDC7F8B6
:10F930001C01D7F81C31C22B28BFC223C7F81C31C9
:10F9400007F110031B6807F11402D0183B1DD7F80C
:10F950001C21196812F03FFD07F110031A68D7F84F
:10F960001C311A4407F110031A6007F110031B68D9
:10F97000C7F81831D7F81821D7F82031134431339C
:10F98000C7F8143107F11402D7F818311344C7F837
:10F990003C3107F11402D7F814311344C7F8383159
:10F9A0000023C7F828310DE0D7F83C3120221A7027
:10F9B000D7F83C310133C7F83C31D7F8283101334F
:10F9C000C7F82831D7F82821D7F820319A42EBD34D
:10F9D0000023C7F830316FE0D7F82C21D7F8243155
:10F9E0009A421CD3D7F83C315A1CC7F83C2120223C
:10F9F0001A70D7F83C315A1CC7F83C2120221A70E3
:10FA0000D7F83C315A1CC7F83C2120221A70D7F88D
:10FA100038315A1CC7F8382120221A7047E0D7F82D
:10FA20002C21D7F854319A4208D2D7F85021D7F870
:10FA30002C3113441B7887F837310AE0D7F82C2192
:10FA4000D7F85431D31AD7F8582113441B7887F8C4
:10FA5000373197F83731D7F83C111846FFF7ECFEED
:10FA6000D7F83C310233C7F83C31D7F83C315A1C47
:10FA7000C7F83C2120221A70D7F83841631CC7F818
:10FA8000383112F079FC024697F8373101331344CC
:10FA90001B7803F09703002B02D097F8373100E072
:10FAA0002E232370D7F82C310133C7F82C31D7F827
:10FAB00030310133C7F83031D7F830310F2B8BD9C3
:10FAC000D7F838315A1CC7F838210D221A70D7F8E8
:10FAD00038315A1CC7F838210A221A70D7F83C313D
:10FAE0005A1CC7F83C2120221A7007F110031A682B
:10FAF000D7F82031134403F1430207F110031A60D1
:10FB000007F110031A6807F1140311461846FFF7AE
:10FB1000A1FC034683F00103DBB2002B02D0D7F82F
:10FB20002C3114E0FFF784FC0346002B02D0D7F8F9
:10FB30002C310CE007F1100300221A60D7F82C21B9
:10FB4000D7F824319A42FFF410AFD7F82C31184679
:10FB500007F5A277BD4690BD80B400AF024B1846B2
:10FB6000BD465DF8047B704721F5010080B400AF0D
:10FB7000024B1846BD465DF8047B704793F80100C0
:10FB800090B585B000AF78600020FFF7FFFBF8600C
:10FB9000FB68002B0AD1FFF7DFFF0446FFF7E6FF03
:10FBA00003467A681946204600F00EF8FB681846AE
:10FBB0001437BD4690BD80B500AF0120FFF7E6FBCE
:10FBC0000346184680BD000080B584B000AFF860E1
:10FBD000B9607A60084BFF229A60074B00221A60D6
:10FBE000054B00225A60B968F86800F007F800BFBA
:10FBF0001037BD4680BD00BF8023002080B483B095
:10FC000000AF78603960074A7B68C2F81034054A53
:10FC10003B68C2F8143400BF0C37BD465DF8047B66
:10FC2000704700BF8023002080B588B000AF7860A7
:10FC300039607B6801337B600123BB610123FB7763
:10FC40000023FB7307F10F03184601F0DBFC294B7F
:10FC50001A683B681A60274B9A68264B5968254BEF
:10FC60001B68CB1A134401337B617A68BB69134468
:10FC70003B613A697B699A422DD97B69002B27D079
:10FC80003B7A012262F301033B723B7A6FF38203FA
:10FC90003B723B7A052262F3C5033B723B896FF3EB
:10FCA00089133B81144B1B68C3F31502BB6862F3D5
:10FCB0009F23BB600F4B1B685A1C0E490A600D4AFC
:10FCC00092681340BA680B4902339B000B445A6098
:10FCD0000023FB7705E0074B1A687B681344054A4D
:10FCE0001360FB7B184601F098FCFB7F1846203719
:10FCF000BD4680BD802300202C20002080B586B02A
:10FD000000AF03463960FB7100237B611D4B9B688C
:10FD10003B6107F10C0319467869FFF785FF03463D
:10FD2000002B2BD03B7A012262F301033B723B7A1A
:10FD30006FF382033B72FB7903F00703DAB23B7A7D
:10FD400062F3C5033B727B69DBB203F00F03DAB2E7
:10FD50003B8962F389133B813B68C3F31502BB689F
:10FD600062F39F23BB60FB685A1CFA603A69134038
:10FD7000BA68044902339B000B445A6000BF18372D
:10FD8000BD4680BD8023002080B588B000AF03460B
:10FD9000B9607A60FB730123FB61224B9B68BB61F6
:10FDA00007F114031946F869FFF73EFF0346002BDD
:10FDB00034D03B7C012262F301033B743B7C6FF344
:10FDC00082033B74FB7B03F00703DAB23B7C62F3F4
:10FDD000C5033B74FB69DBB203F00F03DAB23B8A65
:10FDE00062F389133B82BB68C3F315023B6962F37C
:10FDF0009F233B617B695A1C7A61BA6913403A6957
:10FE0000084902339B000B445A607A69BB6913406E
:10FE1000044A02339B0013447A685A6000BF2037BB
:10FE2000BD4680BD8023002080B588B000AFB9609A
:10FE30007A603B600346FB730223FB61274B9B68A0
:10FE4000BB6107F114031946F869FFF7EDFE03469D
:10FE5000002B3FD03B7C012262F301033B743B7CCF
:10FE60006FF382033B74FB7B03F00703DAB23B7C46
:10FE700062F3C5033B74FB69DBB203F00F03DAB234
:10FE80003B8A62F389133B82BB68C3F315023B696B
:10FE900062F39F233B617B695A1C7A61BA69134004
:10FEA0003A690E4902339B000B445A607B695A1C25
:10FEB0007A61BA691340094A02339B0013447A6895
:10FEC0005A607A69BB691340044A02339B001344A9
:10FED0003A685A6000BF2037BD4680BD80230020AD
:10FEE00080B588B000AFB9607A603B600346FB73B1
:10FEF0000323FB612D4B9B68BB6107F1140319467B
:10FF0000F869FFF791FE0346002B4AD03B7C0122A3
:10FF100062F301033B743B7C6FF382033B74FB7B16
:10FF200003F00703DAB23B7C62F3C5033B74FB6961
:10FF3000DBB203F00F03DAB23B8A62F389133B8230
:10FF4000BB68C3F315023B6962F39F233B617B6986
:10FF50005A1C7A61BA6913403A69144902339B000A
:10FF60000B445A607B695A1C7A61BA6913400F4A84
:10FF700002339B0013447A685A607B695A1C7A6189
:10FF8000BA691340094A02339B0013443A685A6025
:10FF90007A69BB691340054A02339B001344BA6A6D
:10FFA0005A6000BF2037BD4680BD00BF80230020BF
:10FFB00080B400AF064B5A68054B1B689A420CBFD1
:10FFC00001230023DBB21846BD465DF8047B704771
:10FFD0008023002090B59DB004AFFFF7E9FF0346F2
:10FFE000002B01D000232CE1984B5B68FB65974BFD
:10FFF0009B683B64FB6DBB65FB6D5A1CFA653A6CF4
:020000022000DC
:100000001340924A02339B0013445B68BB611AE0C1
:100010007B8BC3F389139BB21A463B8BC3F38913C3
:100020009BB213441A46FB6D1344FB65FB6DBB6525
:10003000FB6D5A1CFA653A6C1340844A02339B00EC
:1000400013445B68BB613B7E03F00303DBB2002B10
:10005000DED000237B653B7E03F00403DBB2002B84
:1000600001D000237B65002387F853303B7E03F0EB
:100070000303DBB2022B40F0A180FB6D5A1CFA6532
:100080003A6C1340714A02339B0013445B68FB6374
:100090007B8BC3F389139BB2BB633B8BC3F3891385
:1000A0009BB2FB64FB6DDA433B6C134001339B0056
:1000B0007B63BA6B7B6B9A4243D97B6B002B08D076
:1000C000FA6D3B6C134002339B00604A13440433C7
:1000D00000E05F4B3B637B6B002B02D07B6BDBB2A2
:1000E00001E0BB6BDBB287F82F307B6B002B01D0BC
:1000F000574B00E00023BB627B6B002B06D0BB6B31
:10010000DAB27B6BDBB2D31ADBB200E0002387F8F4
:1001100027304E4BD3F814443B7EC3F3C203DBB20B
:10012000184697F82F3097F827200392BA6A029260
:1001300001933B6B0093FB6CFA6B796DA047F864FD
:100140001BE0424BD3F814443B7EC3F3C203DBB243
:100150001846FA6D3B6C134002339B003B4A134434
:1001600004330022039200220292BA6B01920093A0
:10017000FB6CFA6B796DA047F864FA6CBB6B9A4222
:1001800009D1BB6B03339B08FA6D1344FB65012354
:1001900087F8533048E0FB6C9BB2C3F309039AB273
:1001A0003B8B62F38F133B83BA6D3B6C1340BA6990
:1001B000264902339B000B445A6035E03B46BB6442
:1001C000BB69C3F395233B623B8BC3F38313DBB261
:1001D000FB6100237B6411E0FB6D5A1CFA653A6CED
:1001E00013401A4A02339B0013445A68BB6C1A60CE
:1001F000BB6C0433BB647B6C01337B647A6CFB693E
:100200009A42E9D3114BD3F810443B7EC3F3C203A7
:10021000DBB218463A46FB69009313463A6A796D99
:10022000A047034687F8533097F85330002B02D08D
:10023000064AFB6D5360FFF7BBFE034683F00103E4
:10024000DBB218466437BD4690BD00BF8023002056
:100250008C23002080B588B000AF78600023FB7746
:100260004BE02A4B1A68FB7FDB001344BB61BB6980
:100270001B781A46012393407B61254B1A687B69E2
:100280001340002B36D07B69DA43214B1B681340A7
:100290001F4A1360BB691B78184604F033FD034600
:1002A000FB74BB691B781A46012393401A46194B0D
:1002B0001B681340FA7CB96909788A40934219D1C6
:1002C000FB7CBA695278012A0CBF01220022D2B20B
:1002D00093420CBF01230023DBB2FB60BB695B6868
:1002E000002B07D0BB695B68BA691278F968C9B29C
:1002F00010469847FB7F0133FB77074B1B78FA7F4B
:100300009A42AED300BF2037BD4680BD982700205B
:10031000C8270020C42700209C27002080B584B077
:1003200000AF78600B46FB7001227B6802FA03F392
:10033000FB601E4B184601F0C7F8B860BB68002B85
:1003400030D11B4B1A68FB681340002B22D1786810
:1003500004F0D8FC0346002B06D0164B1A68FB6845
:100360001343144A136006E0FB68DA43114B1B6821
:100370001340104A13600E4B1A68FB6813430C4A73
:1003800013600A480C4B1B680022194601F068F8FC
:10039000B86008E0FB68DA43054B1B681340044A69
:1003A000136000E000BF1037BD4680BDA4270020C9
:1003B000C8270020C4270020A027002080B588B0CF
:1003C00000AFF8600B467A60FB727B68042B01D8A3
:1003D000072349E004F0C2FB034683F00103DBB2CC
:1003E000002B07D004F07AFBF861FB69002B01D0E9
:1003F000FB6939E01E4AFB6813601E4AFB7A1370E2
:100400001D4A7B6813601D4B00221A601C4B0022A2
:100410001A601EE0FB7ADB00FA681344BB61032319
:100420003B7500237B750023BB750023FB75BB69FF
:100430009B787B75BB691B78184607F11403114A3A
:10044000194604F09DFBF861FB69002B01D0FB69A4
:100450000AE0FB7A5A1EFA72002BDBD10A4A00210D
:100460000A4800F0C9FF034618462037BD4680BD44
:10047000982700209C270020A0270020C4270020C8
:10048000C82700201D030200550202006C2D030046
:1004900080B582B000AF00237B600CE00B4B1A6884
:1004A0007B68DB0013441B780121184604F0C2FB73
:1004B0007B6801337B60064B1B781A467B689A4247
:1004C000ECD8002318460837BD4680BD9827002089
:1004D0009C27002080B586B000AF78600023BB81E8
:1004E00000233B617B687B6107F10C031A46002106
:1004F00044F2010000F018F800BF1837BD4680BD77
:1005000080B400AFBFF34F8F0549054BDB6803F4A0
:10051000E062044B1343CB60BFF34F8F00BFFDE796
:1005200000ED00E00400FA0580B584B000AFF8608B
:10053000B9607A600A490120FFF7E0FBFFF73BFB57
:1005400000BFFFF747FD0346002BFAD10549032002
:10055000FFF7D4FBFFF7D4FF00BF1037BD4680BDC7
:10056000702D0300802D030080B483B000AF78604D
:100570007B6803F00303002B0CBF01230023DBB2D5
:1005800018460C37BD465DF8047B704780B483B0D5
:1005900000AF0346FB71FB799AB2074B1B889A4266
:1005A00003D2FB790133DBB200E0002318460C379D
:1005B000BD465DF8047B7047D827002080B582B027
:1005C00000AF0A4B1B78FB71094B1B78DBB2184656
:1005D000FFF7DCFF03461A46FB7993420CBF012369
:1005E0000023DBB218460837BD4680BDD427002063
:1005F000D527002080B483B000AF094B1B78FB7176
:10060000084B1B78DBB2FA799A420CBF0123002316
:10061000DBB218460C37BD465DF8047B704700BF5F
:10062000D4270020D527002080B584B000AF034632
:100630003A60FB800B46BB80BB8801339BB2DB007A
:10064000FB813868FFF790FF034683F00103DBB2BC
:10065000002B01D0072314E00C4A3B681360FB8990
:100660003A6813440A4A13600A4B00221A700A4B74
:1006700000221A70094AFB881380094ABB8813803C
:10068000002318461037BD4680BD00BFCC27002090
:10069000D0270020D5270020D4270020D6270020EF
:1006A000D827002080B586B000AFF8600B467A608E
:1006B0007B81304B1B887A899A4254D84FF6FF735E
:1006C0007B8200237B7407F11103184600F09AFF28
:1006D000FFF774FF0346002B0DD1274B1B78DBB2CD
:1006E0007B82254B1B78DBB21846FFF74FFF034692
:1006F0001A46214B1A707B7C184600F08EFF7B8ACD
:100700004FF6FF7293422BD01C4B1A687B8ADB009A
:1007100013447A681A60FB68002B17D07B89002B82
:1007200014D0174B1B687A8A1249098801FB02F220
:1007300013447A89F968184611F04DFE0F4B1A6878
:100740007B8ADB0013447A899A8006E00B4B1A6897
:100750007B8ADB00134400229A8000237B6104E043
:1007600004237B6101E009237B617B69184618370C
:10077000BD4680BDD6270020D5270020CC270020ED
:10078000D027002080B400AF00231846BD465DF896
:10079000047B704780B584B000AF29E01D4B1B7807
:1007A000DBB2FB811C4B1B68FA891C49098801FBE1
:1007B00002F21344BB601A4B1A68FB89DB00134436
:1007C0009B88FB80164B1A68FB89DB0013441B686F
:1007D0003B60FA883B681146B86898470D4B1B7818
:1007E000DBB21846FFF7D2FE03461A46094B1A70D1
:1007F000FFF7C8FF034683F00103DBB2002B04D0F0
:10080000FFF7F8FE0346002BC8D000BF1037BD46E7
:1008100080BD00BFD4270020D0270020D62700208D
:10082000CC27002080B483B000AF0346FB71094998
:1008300097F907305B09FA7902F01F02012000FAEC
:1008400002F241F8232000BF0C37BD465DF8047B5F
:10085000704700BF00E100E080B483B000AF034602
:10086000FB71094997F907305B09FA7902F01F0219
:10087000012000FA02F2203341F8232000BF0C3798
:10088000BD465DF8047B704700E100E080B483B0B2
:1008900000AF0346FB71094997F907305B09FA7904
:1008A00002F01F02012000FA02F2403341F8232037
:1008B00000BF0C37BD465DF8047B704700E100E0E7
:1008C00080B483B000AF0346FB71094997F9073044
:1008D0005B09FA7902F01F02012000FA02F260338C
:1008E00041F8232000BF0C37BD465DF8047B7047FC
:1008F00000E100E080B483B000AF03463960FB71D3
:1009000097F90730002B0BDA0D49FB7903F00F0341
:10091000043B3A68D2B25201D2B20B441A7609E0D3
:10092000084997F907303A68D2B25201D2B20B4463
:1009300083F8002300BF0C37BD465DF8047B704789
:1009400000ED00E000E100E080B485B000AF786029
:10095000254BFB607B68002B40D0244B1A68F9685C
:100960007B6800BF00BF00BF00BF00BF00BF00BF6B
:1009700000BF8A422FD000BF00BF00BF00BF00BF32
:1009800000BF00BF00BF00BF00BF00BF00BF00BF6F
:1009900000BF00BF00BF00BF00BF00BF00BF00BF5F
:1009A00000BF00BF00BF00BF00BF00BF00BF00BF4F
:1009B00000BF00BF00BF00BF00BF00BF00BF00BF3F
:1009C00000BF00BF00BF00BF00BF00BF00BF00BF2F
:1009D00000BF00BF00BF013BC3D17B6000BF143725
:1009E000BD465DF8047B70470024F400D42000204D
:1009F00080B582B000AF7860054A7B68C2F80835E0
:100A000007211120FFF776FF00BF0837BD4680BDE4
:100A10000010014080B500AF0D4B4FF48032C3F899
:100A200044230B4B4FF48032C3F804231120FFF70B
:100A300047FF1120FFF7F6FE054B01221A602F2019
:100A4000FFF782FF034B01221A7000BF80BD00BF79
:100A500000100140FA28002080B500AF1120FFF7F8
:100A6000FBFE0F4B4FF48032C3F848230C4B4FF47E
:100A70008032C3F808230A4B01225A602F20FFF767
:100A800063FF074B01229A60064B00221A602F2059
:100A9000FFF75AFF044B00221A7000BF80BD00BF51
:100AA00000100140EC280020FA28002080B400AF9C
:100AB000034BD3F804351846BD465DF8047B7047F8
:100AC0000010014080B483B000AF786039607A686C
:100AD0003B68D31A23F07F4318460C37BD465DF8B8
:100AE000047B704780B483B000AF7860044A7B68B1
:100AF000C2F8403500BF0C37BD465DF8047B704737
:100B00000010014080B487B000AF7860294B1B68AB
:100B1000002B03D1274A7B68136045E07B681A6885
:100B2000244B1B681B689A4210D8224B1B68214A31
:100B3000126811687A6812688A1A1A601D4B1A685E
:100B40007B68DA611B4A7B6813602DE07B681B6859
:100B5000FB60184B1B687B61164B1B683B6109E00F
:100B60003B691B68FA68D31AFB603B697B613B6990
:100B7000DB693B613B69002B04D03B691A68FB6869
:100B80009A42EDD33B69002B05D03B691A68FB689C
:100B9000D21A3B691A607B68FA681A607B683A6906
:100BA000DA617B697A68DA6100BF1C37BD465DF89F
:100BB000047B7047E828002080B586B000AF7860DD
:100BC000294B1B68FB60284B1B687B617B693B6181
:100BD00008E03A697B689A4208D03B697B613B69CF
:100BE000DB693B613B69002BF3D100E000BF3B694F
:100BF000002B01D1002333E07A693B699A4214D17A
:100C0000194B1B68DB69184A1360174B1B68002BD4
:100C10000BD1164B01229A60154B00221A60154B1E
:100C200001221A702F20FFF78FFE3B691B68BB6003
:100C30003B69DA697B69DA617B69DB693B613B6946
:100C4000002B05D03B691A68BB681A443B691A60DF
:100C5000054B1B68FA689A4214BF01230023DBB2DC
:100C600018461837BD4680BDE82800200010014016
:100C7000EC280020FB28002080B500AF1120FFF7F2
:100C800005FE00BF80BD80B500AF1420FFF7FEFD5C
:100C900000BF80BD80B584B000AF78600B467B801C
:100CA0007B88082B0CBF01230023DBB2FB60FB68B1
:100CB000002B02D10020FFF70DFC7B68BB60BB68F6
:100CC0001B68BA6852681046984700BF1037BD4687
:100CD00080BD000080B586B000AF78607B685B693E
:100CE000BB607B689B69FB6007F10803084A082129
:100CF0001846FFF7D7FC78617B693B613B69002BA5
:100D000002D03869FFF7E6FB00BF1837BD4680BD4B
:100D1000950C020080B584B000AF2B4B1B68002BF4
:100D20004ED000237B60FFF7C1FE0246274B1B68B5
:100D300019461046FFF7C6FEB860234B1B68FB60E0
:100D40001DE0FB681A68BB689A421CD8FB681B68E8
:100D5000BA68D31ABB60FB681B687A6813447B606F
:100D6000FB683B60FB68DB69FB603B681B7C002B1E
:100D700005D03B6800221A743868FFF7ABFFFB68A8
:100D8000002BDED100E000BF114B1A78114B1B780D
:100D90009A420CD10F4B1B780133DAB20D4B1A700B
:100DA0000C4B1B78022B02D10A4B00221A70094B04
:100DB0001B781946084A7B6842F82130FFF763FF29
:100DC00000BF1037BD4680BDE8280020EC28002079
:100DD000F8280020F9280020F028002080B483B0F3
:100DE00000AF7860194B1A78194B1B789A4223D0C0
:100DF000164B1B780133DAB2144B1A70134B1B7865
:100E0000022B02D1114B00221A70104B1B781A468C
:100E1000104B53F822207B681A607B681A680E4BCF
:100E20001B6813440C4A13600B4B1B6823F07F4371
:100E3000094A1360012303E07B6800221A60002343
:100E400018460C37BD465DF8047B7047F828002033
:100E5000F9280020F0280020EC28002080B489B078
:100E600000AFF860B9607A600023FB6138E0214B85
:100E70001B68BB61BB691A68FB689A4206D9BB69EB
:100E80001A68FB68D21ABB691A602DE0BB691B683F
:100E9000FA68D31AFB60BB691B68FA691344FB61EB
:100EA000BB6900221A60134B1B687B61BB69DB695D
:100EB000104A1360BB69DB68002B11D0BA68FB696C
:100EC000134423F07F42BB695A60BB69DA68BB698F
:100ED0009A607B681A68BB69DA617B687A691A6014
:100EE000044B1B68002BC2D100BF2437BD465DF800
:100EF000047B7047E828002080B588B000AF786098
:100F00000023FB77654B1B687B61A9E07B68002BA6
:100F100005D07B68BB61BB69DB697B6060E0604BCF
:100F20001B781A4613465B001344DB005C4A1344EB
:100F300004333B615A4B1B780133DAB2584B1A70B9
:100F4000574B1A78564B9B789A4202D1544B002249
:100F50001A703B695B68BB613B691B78022B04D04C
:100F6000032B1AD0012B1ED01CE03B695B6818468E
:100F7000FFF722FE0346002B01D00123FB77BB695C
:100F800000221A746CE0454B1B68FB60FB68002272
:100F90001A74FB68DB69414A1360404B1B68002BE5
:100FA000F1D15DE05CE000BFBB691B7C002B00D091
:100FB00056E03B699A68BB695A603B69DA68BB696D
:100FC0009A603B691A69BB69DA603B695A69BB6917
:100FD0009A61344B1B78002B02D0BB6900225A6007
:100FE000BB695A68304B1B68D31A23F07F432F4AE2
:100FF00093420ED8BB695A682B4B1B6819461046A2
:10100000FFF760FD0246BB699B681A44BB691A6022
:1010100017E0254B1A68BB695B6819461046FFF755
:1010200051FDB860BB699A68BB689A4206D9BB6932
:101030009A68BB68D21ABB691A6002E0BB690022D9
:101040001A60BB6900225A60BB6900229A60BB69C2
:1010500001221A74BB690022DA61B869FFF752FDF8
:101060007B68002B7FF452AF0D4B1A780C4B5B78EA
:101070009A427FF44BAFFB7F002B04D1074B1A68D9
:101080007B699A4201D0012300E0002303F00103B1
:10109000DBB218462037BD4680BD00BFE8280020DF
:1010A000DC270020FB280020EC280020FEFF7F002A
:1010B00090B589B000AF7860274B1B68002B44D0F7
:1010C000254B1B681B68FB61FFF7F0FCB861234BE5
:1010D0001B687B617969B869FFF7F4FC0346033349
:1010E0003B611F4B1B7883F00103DBB2002B01D067
:1010F000FFF790FC3A69FB69934238BF13467A695F
:1011000013447B617B6923F07F437B617869FFF740
:10111000E9FCFFF7CBFCF860B969F868FFF7D2FC8F
:101120000346DC1CB9697869FFF7CCFC03469C4296
:101130000DD9FFF7BBFC03461846FFF7D3FC2F2061
:10114000FFF702FCFFF798FD01E0FFF785FC00BF09
:101150002437BD4690BD00BFE8280020EC280020C1
:10116000FA28002080B586B000AF00237B60002302
:10117000FB75164B1B683B61154B1B68FB603B46C0
:101180001846FFF72BFE0346FB72FB7A002B07D0B5
:101190003B683A1D39691846FFF760FE0123FB756D
:1011A0007B681846FFF7A8FE0346002B01D00123F9
:1011B000FB75FB7D002B02D0F868FFF779FF054B2C
:1011C00000221A7000BF1837BD4680BDEC280020F1
:1011D000E8280020FB28002080B483B000AF03463D
:1011E000FB71044AFB79537000BF0C37BD465DF8B4
:1011F000047B7047DC27002080B485B000AF7860A6
:10120000134B5B780133FB73114B9B78FA7B9A424B
:1012100001D10023FB730E4B1B78FA7B9A4201D15C
:1012200000230EE07B68FA7B1A70094B5B781A4644
:1012300013465B001344DB00054A13440433BB60D0
:10124000BB6818461437BD465DF8047B704700BF85
:10125000DC27002080B588B000AFF860B9607A6004
:101260003B600023FB610023BB7507F116031846A2
:1012700000F0C8F907F117031846FFF7BDFFB86182
:10128000BB69002B02D10423FB6117E0BB6901227B
:101290001A70BB69FA685A60FFF708FC0246BB691E
:1012A0009A60BB69BA68DA60BB697A681A61BB691F
:1012B0003A685A61FB7D1846FFF78EFFBB7D1846E2
:1012C00000F0ABF9FB69002B01D1FFF7DCFCFB69F7
:1012D00018462037BD4680BD80B586B000AF786027
:1012E0000B46FB7000237B610023BB7307F10E03E9
:1012F000184600F087F907F10F031846FFF77CFF47
:1013000038613B69002B02D104237B6109E03B6912
:10131000FA781A703B697A685A60FB7B1846FFF7C7
:101320005BFFBB7B184600F078F97B69002B01D18D
:10133000FFF7A9FC7B6918461837BD4680BD000041
:1013400080B500AF0D4B0022C3F840210B4B0022AB
:10135000C3F84421094B0022C3F84821074B00225F
:10136000C3F84C21054B0022C3F80021034B002297
:10137000C3F80421FFF7CEFC00BF80BD0010014080
:1013800080B500AFFFF7EEFE00BF80BD80B500AFB7
:10139000FFF762FB134B00221A70124B00225A70A7
:1013A000104B0B229A70104B00221A600F4B002238
:1013B0001A700F4B00221A701420FFF781FA0721D0
:1013C0001420FFF797FA1420FFF72CFA0020FFF7FC
:1013D0000FFBFFF76BFB0246064B1A600023184613
:1013E00080BD00BFDC270020E8280020F82800206E
:1013F000F9280020EC28002080B487B000AFF86006
:101400000B467A60FB72154B9B78002B01D10823A9
:101410001DE07B68002B01D1072318E0FB68002B3F
:1014200001D1072313E0FB681B681B7C002B01D054
:1014300008230CE0FB681B687B617B6900221A743F
:101440007B69FA7A5A747B697A685A610023184674
:101450001C37BD465DF8047B704700BFDC270020C9
:1014600080B586B000AFF860B9607A60FB687B61D8
:10147000144B9B78002B01D108231EE0FB68002B46
:1014800001D1082319E0BB68042B01D8072314E01D
:101490007B695B69002B01D108230EE07B695B7CD3
:1014A000012B01D1BB6800E000233B617B683A69F6
:1014B000B9687869FFF7CEFE034618461837BD466F
:1014C00080BD00BFDC27002080B584B000AF78600D
:1014D0007B68FB600D4B9B78002B01D1082310E04B
:1014E0007B68002B03D0FB685B69002B01D10823CC
:1014F00007E0FB6800221A740221F868FFF7ECFE8F
:10150000034618461037BD4680BD00BFDC270020CB
:1015100080B483B000AFEFF310833B603B687B6027
:1015200072B67B6818460C37BD465DF8047B704781
:1015300080B400AF62B600BFBD465DF8047B704763
:1015400080B584B000AF7860FFF7E2FFF860164B1B
:101550009B68002B1BD1144B01229A60134BD3F8CC
:101560008020134B1340104A1360104B104AC3F8ED
:1015700080200E4BD3F884300B4A53600B4B4FF056
:10158000FF32C3F884207B6800221A7002E07B6877
:1015900001221A70FB68002B01D1FFF7C9FF00235D
:1015A00018461037BD4680BD1836002000E100E027
:1015B000FC06FFBD80B584B000AF0346FB710F4B46
:1015C0009B68002B15D0FB79002B12D1FFF7A0FFF1
:1015D000F8600B4A094B1B681360094A074B5B68AC
:1015E0005360064B00229A60FB68002B01D1FFF785
:1015F0009FFF002318461037BD4680BD18360020D7
:1016000000E100E080B582B000AF78607868FFF755
:1016100097FF00BF0837BD4680BD80B582B000AFE0
:101620000346FB71FB791846FFF7C4FF00BF08377C
:10163000BD4680BD80B483B000AF78607B6803F0A6
:101640000303002B0CBF01230023DBB218460C3729
:10165000BD465DF8047B704780B483B000AF03469D
:10166000FB71064B1A78FB791343DAB2034B1A70FD
:1016700000BF0C37BD465DF8047B7047FC28002096
:1016800080B483B000AF0346FB7197F90730DB43AA
:101690005AB2074B1B785BB213405BB2DAB2044B11
:1016A0001A7000BF0C37BD465DF8047B704700BF61
:1016B000FC28002080B483B000AF0346FB71084BC8
:1016C0001A78FB791340DBB2002B14BF01230023EF
:1016D000DBB218460C37BD465DF8047B704700BF8F
:1016E000FC28002080B584B000AF78600023FB6048
:1016F0000EE00B4AFB6852F82330002B05D0084A55
:10170000FB6852F8233078689847FB680133FB6028
:10171000FB68072BEDD900BF1037BD4680BD00BF69
:101720000029002080B483B000AF786039607B6806
:101730001B78013B052B5BD801A252F823F000BFB8
:10174000591702006117020081170200B317020047
:10175000D3170200E91702003B6800221A7048E024
:101760003B6801221A707B681A893B689A817B6802
:101770009A883B68DA817B68DA683B689A6038E06F
:101780003B6802221A707B681A893B689A817B68E1
:101790009A883B68DA817B68DA683B689A607B6884
:1017A0001B7C062B0CBF01230023DAB23B681A74A2
:1017B0001FE03B6803221A707B68DA883B689A81D5
:1017C0007B681A893B68DA817B68DA683B689A60D3
:1017D0000FE03B6804221A707B68DA883B689A81C4
:1017E0003B680022DA8104E03B6805221A7000E0C1
:1017F00000BF00BF0C37BD465DF8047B704700BFDB
:1018000080B483B000AF78607B689B884FF6FF722E
:10181000934205D07B681B88002B01D0012300E098
:10182000002303F00103DBB218460C37BD465DF818
:10183000047B704780B582B000AF78607B68002B76
:1018400011D00D4B1A687B689A420CD80A4B5A6823
:101850007B689A4207D37868FFF7ECFE0346002BBB
:1018600001D0012300E0002303F00103DBB218469E
:101870000837BD4680BD00BF5022002080B584B02F
:1018800000AF786039600023FB6012E0FB68DB008A
:101890007A6813441B681846FFF7CCFE034683F0B2
:1018A0000103DBB2002B01D0002307E0FB6801330A
:1018B000FB60FA683B689A42E8D301231846103768
:1018C000BD4680BD80B483B000AF78607B681B6884
:1018D0000C4A934201D003230DE07B6804331B685C
:1018E000094A934204D0094A934203D1012302E0FA
:1018F000002300E0032318460C37BD465DF8047B47
:10190000704700BFDEC0ADDEFE011EF1FF011EF11B
:1019100080B485B000AF78600023FB600CE0FB680A
:101920009B007A6813441B68B3F1FF3F01D000238A
:1019300007E0FB680133FB60FB68B3F5806FEED313
:10194000012318461437BD465DF8047B704700003C
:1019500080B483B000AF03460A46FB801346BB80C9
:10196000FB880F4A1B01134408331A88BB881344B1
:10197000BB80FB880A4A1B0113440A331A88BB88C0
:101980001344BB80BB8840F2FF32934294BF0123D3
:101990000023DBB218460C37BD465DF8047B704768
:1019A000E429002080B485B000AF786039600A2354
:1019B000FB6000237B811CE07B89134A1B011344DD
:1019C00004331A683B689A4210D27B890E4A1B0185
:1019D000134404331B6803F580523B689A4205D9CF
:1019E0000023FB607B687A891A8005E07B890133DC
:1019F0007B817B89012BDFD9FB6818461437BD46F4
:101A00005DF8047B704700BFE429002080B588B0F2
:101A100000AFF860B9607A60FB6803F58053BB6182
:101A20000023FB77FB680833FB60BB6802221A8047
:101A300028E0FB687B617869FFF7E2FE034683F0EC
:101A40000103DBB2002B02D00123FB7709E07B69A5
:101A50009A68164B1B689A4203D97B699B68134AA4
:101A600013607B695B8803339B00FA681344FB6057
:101A7000BB681A887B695B8813449BB203339AB2B4
:101A8000BB681A80FA68BB699A4204D2FB681B687B
:101A9000B3F1FF3FCDD17B68002B02D07B68FA7F8A
:101AA0001A7000BF2037BD4680BD00BF202900202E
:101AB00080B483B000AF78600B467B807B681A8966
:101AC0007B8813449BB203339AB27B681A817B688C
:101AD0005A897B88D31A9BB2033B9AB27B685A819E
:101AE00000BF0C37BD465DF8047B704780B582B0FF
:101AF00002AF064B1968002300930223044A0548ED
:101B000001F04EFE03461846BD4680BD042A002063
:101B1000A02D03005022002080B584B002AF786071
:101B2000002300930223054A7968054801F038FE36
:101B3000034618460837BD4680BD00BFA82D0300E8
:101B40005022002080B584B000AF03463960FB808E
:101B50000023FB73FB8803337B817B8940F2FD32DA
:101B6000934201D9092334E00023BB8128E0BB89DB
:101B70001A4A1B0113441B78002B1ED17A89BB899A
:101B800011461846FFF7E4FE0346002B15D001234B
:101B9000FB733B68BA891A80BB89BA890F49120165
:101BA0000A440A3211887A890A4491B20B4A1B010D
:101BB00013440A330A461A8005E0BB890133BB810E
:101BC000BB89012BD3D9FB7B002B01D0002300E084
:101BD000072318461037BD4680BD00BFE42900200A
:101BE00080B483B000AF03460A46FB801346BB8037
:101BF000BB88BA880A4912010A440A321188FA8855
:101C00008A1A92B2033A91B2054A1B0113440A336D
:101C10000A461A8000BF0C37BD465DF8047B70474A
:101C2000E429002080B400AF054B1B680133044A4F
:101C30001360034B1B681846BD465DF8047B704774
:101C40002029002080B584B000AF03463960FB80B6
:101C50003B681B68FB60FB68002B09D0FB68BB601E
:101C6000BB685B8803339B00FA681344FB601CE08D
:101C7000FB88184A1B01134404331B680833FB60BC
:101C800013E0FB68BB60B868FFF7BAFD0346002BA2
:101C900004D03B68FA681A60012317E0BB685B88D0
:101CA00003339B00FA681344FB60FB88094A1B015D
:101CB000134404331B6803F58052FB689A4204D92D
:101CC000FB681B68B3F1FF3FDBD1002318461037D8
:101CD000BD4680BDE429002080B584B000AF7860A7
:101CE00039607B685B681846FFF7A4FD0346002B4C
:101CF00019D07B681A89254B1B899A4213D17B68BE
:101D00001A687B685B689B689A420CD17B685B6849
:101D100019463868FFF746FE0346002B0CBF012327
:101D20000023DBB22DE03B6800221A8024E0002370
:101D3000BB6010E0BB68FB60FB689A687B681B684F
:101D40009A4208D1BA687B685A60104B1A897B683E
:101D50001A81012315E03B681B8807F10802114630
:101D60001846FFF76FFF0346002BE3D13B681B8843
:101D700001339AB23B681A803B681B88012BD6D985
:101D8000002318461037BD4680BD00BF0C2A002036
:101D900080B586B000AFF860B9607A603B60022021
:101DA000FFF788FC034683F00103DBB2002B01D070
:101DB00002234FE07B68002B02D03B68002B44D10C
:101DC000052347E03B689B88244A1B0113441B788A
:101DD000002B33D124E03B681B687B61FB68002B40
:101DE00006D07B699A88FB681B889A4200D017E06E
:101DF000BB68002B06D07B691A88BB681B889A4297
:101E000000D00DE07B699A687B681A603B681A68AD
:101E10007B685A60124B1A897B681A81002319E08B
:101E20003B689B883A6811461846FFF70BFF03464C
:101E3000002BD0D13B6800221A6000E000BF3B6855
:101E40009B8801339AB23B689A803B689B88012B40
:101E5000B8D90A2318461837BD4680BDE4290020AA
:101E60000C2A002080B500AF124B1A6F1346DB001E
:101E70009B1A9B000F4A13441C2200211846FDF7B1
:101E800067FA0C4B5B6F002B0BD00A4B1B6F0133B7
:101E900003F00303074A1367064B5B6F013B054AD8
:101EA0005367044B5B6F002B14BF01230023DBB28D
:101EB000184680BD2429002080B483B000AF78602C
:101EC0007B681B68084A934206D07B681B6803F155
:101ED00008027B681A6002E07B68044A1A600C37CB
:101EE000BD465DF8047B7047D42900209C29002062
:101EF00080B483B000AF78600E4B5B6C002B12D0C7
:101F00000C4B1B6CDB000B4A1A447B681A60094BB4
:101F10001B6C013303F00703064A1364054B5B6C2B
:101F2000013B044A536400BF0C37BD465DF8047B97
:101F3000704700BF9C29002080B483B000AF786058
:101F40007B681B78022B03D07B681B78032B0DD199
:101F5000094B1B6C7A68927D1344074A1364064B45
:101F60005B6C7A68927D9B1A034A536400BF0C37FE
:101F7000BD465DF8047B70479C290020B0B588B051
:101F800000AFF860B9607A600023FB772E4B5B6F7F
:101F9000032B54D82D4B5A6CBB68C3F108039A42EB
:101FA0004DD8294B5A6F284B1B6F134403F0030382
:101FB0007B6125497A691346DB009B1A9B00CA188E
:101FC000FB6814461D460FCD0FC495E8070084E852
:101FD00007001D4B5B6F01331B4A5367BB68002B27
:101FE0002BD01A4B5A6C194B1B6C134403F007038C
:101FF0007B617B69DB00154A13443B610023BB61B5
:1020000011E03969BB69DB007A681A440B4692E833
:10201000030083E8030007F110031846FFF74CFFA5
:10202000BB690133BB61BA69BB689A42E9D3074B0C
:102030005A6CBB681344054A53640123FB77FB7F4A
:1020400018462037BD46B0BD242900209C29002019
:1020500080B586B000AF00237B6100237B82002324
:102060007B740023FB81A2E0564B1B68FA891203A4
:102070001344BB60B868FFF725FC0346FB71FB798E
:10208000012B63D0032B02D0002B3BD08CE0B8682F
:10209000FFF73EFC0346002B2BD04B4B1B68002B5D
:1020A0001AD07B8A494A1B01134402221A707B8A88
:1020B000464A1B0113440433BA681A607B8A434AB8
:1020C0001B011344083302221A80414A7B8A538041
:1020D0007B8A01337B8207E03B4ABB6813603A4B43
:1020E00002229A8001237B747B6943F001037B61A8
:1020F0005AE07B8A5A1C7A82344A1B011344032219
:102100001A7051E07B8A314A1B01134400221A7075
:102110007B8A2E4A1B0113440433BA681A607B8AF7
:102120001B010833294A99187B8A1B010833274A67
:10213000134406331A46B868FFF768FC7B6943F01E
:1021400002037B617B8A01337B822DE07B7C002B49
:1021500017D07B8A1D4A1B01134402221A707B8A06
:10216000194A126819491B010B4404331A607B8A0F
:10217000164A1B011344083302221A807B8A01335A
:102180007B82114ABB68136000221249B868FFF7CE
:102190003DFC0D4B9B88022B01D1042300E008235A
:1021A0007A6913437B6100BFFB890133FB81FB89A3
:1021B000022B7FF659AF7B69DBB218461837BD4654
:1021C00080BD00BF50220020042A0020E429002006
:1021D0000C2A0020082A002080B586B002AF786063
:1021E00039607B681A1D0023009301233968094870
:1021F00001F0D6FA0346FB607B6802221A74FB6882
:10220000002B01D1002300E00E2318461037BD46F5
:1022100080BD00BF5022002080B586B002AF78603C
:1022200039603B6803F108017B6803F10C0200236D
:10223000009301230B4801F0B3FA0346FB607B686F
:102240009B7D002B01D0032200E001227B681A74E1
:10225000FB68002B01D1002300E00E231846103745
:10226000BD4680BD5022002080B586B002AF7860A8
:1022700039603B68191D7B6803F108020023009355
:1022800001230C4801F08CFA0346FB607B681B7845
:10229000032B01D1052200E006227B681A74FB683B
:1022A000002B01D1002300E00E2318461037BD4655
:1022B00080BD00BF5022002080B586B002AF78609C
:1022C0000B467B800023009301230C4A79680C485D
:1022D00001F066FA0346FB73FB7B002B01D00E2353
:1022E00007E07B88074A1B0113440E3301221A7052
:1022F000002318461037BD4680BD00BF9C2D03004B
:1023000050220020E429002080B588B000AF78601A
:1023100007F1080300221A605A609A607B68DB6844
:10232000BB6007F1160207F1080311461846FFF7D4
:10233000D3FC0346002B11D0FB68BB61BB699A88B4
:102340007B68DA80BB691A887B681A81FB68FA8A25
:1023500011461846FFF7B0FFF86101E00A23FB6160
:10236000FB6918462037BD4680BD000080B586B0A9
:1023700000AF78607B68981D07F108020D4B0021C3
:10238000FFF706FD78617B69002B08D1FA68094BDD
:102390009B8819461046FFF78FFF786104E00822FA
:1023A00000210448FCF7D4FF7B6918461837BD4666
:1023B00080BD00BF1C2A002080B586B002AF7860C7
:1023C00039600023BB6007F108031846FFF790FD52
:1023D0007B689B8A9B003A68D118BB681A68BB6807
:1023E0009888002300930346114801F0D9F9034669
:1023F000FB607B689A8ABB689B8813449AB27B68AF
:102400009A827B689B7D013BDAB27B689A757B6818
:102410009B7D002B02D17B6801221A74FB68002B84
:1024200001D1002300E00E2318461037BD4680BDC1
:102430005022002080B483B000AF154B1B890133BC
:102440009AB2134B1A81124B00225A80104B002271
:102450001A730023FB8011E0FB88FA880D491201F2
:102460000A441278002A0CBF01220022D1B2084A85
:1024700013440A469A72FB880133FB80FB88012BC8
:10248000EAD900BF0C37BD465DF8047B704700BF3A
:102490000C2A0020E429002080B485B000AF7860C9
:1024A0000023FB730023BB8123E0BB89164A13443E
:1024B0009B7A002B1AD0BB89134A134400229A72CC
:1024C000BB89124A1B0113440C331B88002B0DD10E
:1024D000BB890E4A1B0113440E331B78002B05D019
:1024E0007B68BA891A800123FB7305E0BB8901333D
:1024F000BB81BB89012BD8D9FB7B18461437BD465D
:102500005DF8047B704700BF0C2A0020E4290020FE
:1025100080B500AF074B05221A70074B02229A8044
:10252000054B196800230122044801F0A3F9034672
:10253000184680BD0C2A0020042A002050220020CA
:1025400080B582B000AF124B5B887B807B88114ADC
:102550001B0113440C331B88002B10D17B880D4AC0
:102560001B01134404331968002301220A4801F0B7
:1025700081F903467B60064B04221A7002E0FFF7E4
:10258000C7FF78607B6818460837BD4680BD00BF2E
:102590000C2A0020E42900205022002080B586B0BB
:1025A00002AF104B5B68FB600F4B1A680E4B9B88A9
:1025B0009B001344BB60FB685B880333FB80094BC3
:1025C00003221A70074B5A68F988002300930B46C0
:1025D000B968064801F0E4F8034618461037BD46CE
:1025E00080BD00BF0C2A0020042A002050220020B9
:1025F00080B582B000AF0A4B5B880A491846FFF7E6
:1026000021FB0346002B03D0FFF7C8FF786002E0F0
:10261000FFF796FF78607B6818460837BD4680BD97
:102620000C2A0020102A002080B500AF074B06229C
:102630001A70064B5B88064A1B01134404331B685F
:102640001846FFF769FA0346184680BD0C2A002099
:10265000E429002080B500AF054B07221A70044B17
:1026600000225A60FFF742FA0346184680BD00BFB9
:102670000C2A002080B500AF0C48FFF70DFF034681
:1026800083F00103DBB2002B0BD0094B00221A7040
:10269000074B00225A80064B00225A6041F61D5318
:1026A00002E0FFF7A5FF0346184680BD0E2A002072
:1026B0000C2A002080B483B000AF0A4B5B687B60BB
:1026C0007B685B8803337B80074B9A887B88134445
:1026D0009AB2054B9A8000BF0C37BD465DF8047B6B
:1026E000704700BF0C2A0020042A002080B483B069
:1026F00000AF144B1B687B60134B5B88134A1B01B4
:10270000134404331B680F4A13600F4B5B880F4A56
:102710001B01134404337A681A600B4B5B8818461C
:10272000084B9988094A0301134408330A461A8062
:10273000044B02229A8000BF0C37BD465DF8047B33
:10274000704700BF042A00200C2A0020E429002042
:1027500080B500AF1A4B1B78072B2DD801A252F879
:1027600023F000BF85270200B9270200B927020025
:10277000912702009D270200A9270200A927020035
:10278000B1270200FFF756FE0D4B01221A7014E02C
:10279000FFF790FF0A4B02221A700EE0FFF7A6FF28
:1027A000074B06221A7008E0054B07221A7004E056
:1027B000034B01221A7000E000BF00BF80BD00BFC4
:1027C0000C2A002080B586B000AF786039600F23F6
:1027D0007B617B68002B04D00120FEF751FF0123B1
:1027E00098E03B681B79032B00F2888001A252F825
:1027F00023F000BF05280200132802007B280200F6
:102800009B280200FFF772F978613B6801221A7178
:1028100077E00023FB7400233B821CE03B8A3F4AA5
:102820001B0113441B78022B12D13B8A3B4A1B012C
:10283000134404331B681846FFF76EF978613B8A2E
:10284000364A1B01134400221A700123FB7405E071
:102850003B8A01333B823B8A012BDFD9FB7C83F02F
:102860000103DBB2002B4BD00220FEF7F5FE012066
:10287000FEF706FF41F61D534CE0294B1968002373
:102880000122284800F0F6FF03467B61244B022218
:102890009A803B6800221A7133E0214B1B6818466E
:1028A000FFF73AF97861204B5B88FB811C4B1B6872
:1028B000BB60FB89194A1B01134404331B68184A87
:1028C0001360FB89154A1B0113440433BA681A606C
:1028D000FB89134A9188114A1B01134408330A46A5
:1028E0001A800F4B02229A80FB890C4A1B01134469
:1028F00000221A703B6800221A7102E000BF00E05B
:1029000000BF7B69002B04D00120FEF7B9FE0E2327
:1029100000E0002318461837BD4680BDE42900209A
:10292000042A0020502200200C2A002080B586B006
:1029300000AF786039603B685B8A1B013B4A1344F7
:102940003B617B68002B07D03B68DB881946386900
:10295000FFF7AEF8012364E03B695A683B691B89C5
:102960009B001344FB603B681B7C062B4CD801A2E8
:1029700052F823F0B7290200DB290200C329020024
:10298000CF29020091290200E7290200012A020052
:10299000274B00225A603B689B69254A13602549F2
:1029A0002348FFF799F9034683F00103DBB2002BBC
:1029B00001D00A2335E0F9683868FFF70DFC78612B
:1029C00025E0F9683868FFF727FC78611FE0F968AF
:1029D0003868FFF7F1FC786119E0F9683868FFF7AB
:1029E00043FC786113E0124B5A68124B1B8819465E
:1029F0001046FFF761FC78613B6806221A7406E016
:102A000041F61D537B6102E00F237B6100BF7B69B0
:102A1000002B05D03B68DB8819463869FFF748F87A
:102A20007B6918461837BD4680BD00BFE4290020E9
:102A3000242A0020302A002080B584B000AF7860BE
:102A400039607B68002B01D0012323E03B681B79B0
:102A5000012B0BD0022B14D0002B16D13868FFF7B6
:102A600053FCF8603B6802221A7112E03868FFF7E5
:102A70007DFCF860FB680A2B0AD141F61D53FB6010
:102A800006E041F61D53FB6003E00F23FB6000E00E
:102A900000BFFB6818461037BD4680BD80B584B0C6
:102AA00000AF78607B68002B01D001233CE0204B15
:102AB0001B7B002B03D01E4B00221A7301E0FFF793
:102AC00047FE1B4B1B78013B062B29D801A252F86D
:102AD00023F000BFF12A0200F92A0200012B0200B4
:102AE000092B0200212B0200112B0200192B0200DE
:102AF000FFF7C0FDF86016E0FFF77AFDF86012E01E
:102B0000FFF74CFDF8600EE0FFF71AFDF8600AE0F1
:102B1000FFF78AFDF86006E0FFF79CFDF86002E031
:102B20000F23FB6000BFFB6818461037BD4680BD11
:102B30000C2A002080B58AB000AF0346FB71334BEE
:102B40001A6F1346DB009B1A9B00304A13443B620A
:102B50003B6A1B78013B052B29D801A252F823F0D0
:102B6000792B0200872B0200872B0200952B020095
:102B7000952B0200A32B0200FB79396A1846FFF758
:102B800021FE786216E0FB79396A1846FFF7CEFE1F
:102B900078620FE0FB79396A1846FFF74DFF7862DB
:102BA00008E0FB791846FFF779FF786202E00F230F
:102BB0007B6200BF7B6A002B23D07B6A41F61D52EB
:102BC000934202D100233B6104E07B6A3B61386A97
:102BD000FFF7B2F907F10C031946386AFEF7A2FDB8
:102BE00007F10C031846FEF77DFDFFF73BF903469E
:102BF000002B03D00020FFF79DFF02E00420FEF72A
:102C00003FFD00BF2837BD4680BD00BF24290020FE
:102C100080B500AF0420FEF74DFD034683F00103AD
:102C2000DBB2002B05D00420FEF716FD0020FFF7D5
:102C300081FF00BF80BD80B582B000AF78600B46D9
:102C4000FB70FB781846FFF775FF00BF0837BD46DD
:102C500080BD000080B590B000AFF860B9607A60C8
:102C6000FB700023FB860023FB870220FEF722FD7A
:102C7000034683F00103DBB2002B01D002239BE06B
:102C8000BB68002B01D1052396E0BB681B884FF67B
:102C9000FF72934203D0BB685B88002B01D10423F1
:102CA0008AE0BB685A68BB681B8919461046FEF764
:102CB000E5FD034683F00103DBB2002B01D00323C3
:102CC0007AE07B68002B21D10023BB630BE0BB685B
:102CD0005A68BB6BDB0013449A88FB8F1344FB8755
:102CE000BB6B0133BB63BB681B891A46BB6B9A4243
:102CF000EDD807F11202FB8F11461846FEF722FFAE
:102D000038633B6B002B07D03B6B55E07B681B881F
:102D10007B827B685B88FB87FB783B75002387F8A9
:102D200024307B8AFB84BB681B89DBB287F82A309E
:102D300003233B85FEF776FF03463B62BB681B8897
:102D4000BB83BB685B883B83FB8F7B83FB78032B58
:102D500005D1042387F82430FB681B68FB62FB8ED7
:102D6000FB83BB681B891946BB685A6807F11403CB
:102D70001846FFF703F9034683F00103DBB2002B8B
:102D800007D07A8AFB8F11461846FEF729FF0823E1
:102D900012E0FB68002B0CD0FB6800225A603A6AF4
:102DA000FB681A60FB6800229A72054B1A89FB685F
:102DB0001A81FFF72DFF002318464037BD4680BD1E
:102DC0000C2A002080B485B000AF78600E4B1B78D1
:102DD000082B02D10C23FB600EE00B4B1B7819462D
:102DE0000A4A7B6842F82130074B1B780133DAB27C
:102DF000054B1A700023FB60FB6818461437BD466C
:102E00005DF8047B704700BFFD28002000290020EA
:102E100080B58EB000AF07F1200300221A605A601F
:102E20009A60DA601A610220FEF744FC0346002B28
:102E300006D007F120031846FEF754FC002358E0A3
:102E40000120FEF737FC0346002B01D0002350E0A1
:102E50000120FEF701FC00F015FC01233B71FFF798
:102E6000F7F8034687F8373097F837300B2B36D80A
:102E700001A252F823F000BFA92E0200C72E0200C3
:102E8000A92E0200C72E0200DF2E0200D92E02005A
:102E9000AD2E0200D92E0200DF2E0200CD2E020040
:102EA000D32E0200CD2E02000B2322E00220FEF7DB
:102EB000D3FB0120FEF7E4FB07F120031846FEF7E1
:102EC00011FC002315E000233B7209E003233B7251
:102ED00006E002233B7203E001233B7200E000BFE7
:102EE0003B1D002200211846FFF748F8FFF790FE2F
:102EF000002318463837BD4680BD00BF80B584B07A
:102F000000AF786039607B68002B02D03B68002BF3
:102F100001D1052328E007F10A0319467868FEF776
:102F2000DBFE0346002B1ED07B685B68FB607B8961
:102F30000F491A010A440C321288013291B20C4A2C
:102F40001B0113440C330A461A803B68FA681A6066
:102F50007B685B6803F10C023B685A607B68012266
:102F60009A72002300E00A2318461037BD4680BD40
:102F7000E429002080B584B000AF78607B68002B26
:102F800001D105232EE007F10A0319467868FEF700
:102F9000A3FE0346002B22D07B89144A1B01134455
:102FA0000C331B88002B17D07B689B7A002B13D027
:102FB0007B890E491A010A440C321288013A91B2F7
:102FC0000A4A1B0113440C330A461A807B6800220C
:102FD0009A720023FB6004E00623FB6001E00A23F1
:102FE000FB60FB6818461037BD4680BDE429002011
:102FF00080B584B000AF78600B467B800220FEF77E
:1030000059FB034683F00103DBB2002B01D00223FE
:1030100016E07B68002B01D1052311E007F10A02BD
:103020007B8811461846FEF78DFDF860FB68002B83
:1030300005D17A897B681A807B687A885A80FB6818
:1030400018461037BD4680BD80B584B000AF7860AB
:103050000220FEF72FFB034683F00103DBB2002BB7
:1030600001D002232DE07B68002B01D1052328E04D
:103070007B681B88022B01D9042322E07B681B8814
:103080001B01124A1344BB60BB685B891A467B680C
:103090005B880333D31A002B10DB7B685A887B686C
:1030A0001B8819461046FEF79BFD7B6800221A809C
:1030B0007B6800225A800023FB6001E00423FB6050
:1030C000FB6818461037BD4680BD00BFE4290020CC
:1030D00080B582B000AF7860396002230022396881
:1030E0007868FFF7B7FD034618460837BD4680BD30
:1030F00080B584B000AFF860B9607A607B68002B5F
:1031000001D1052306E002237A68B968F868FFF761
:10311000A1FD034618461037BD4680BD80B582B07C
:1031200000AF786039607B68002B01D1052306E091
:103130000323002239687868FFF78CFD03461846A0
:103140000837BD4680BD80B58AB000AF0346FB801E
:103150000220FEF7AFFA034683F00103DBB2002B37
:1031600001D002231BE0FB884FF6FF72934201D18E
:10317000042314E005233B7301233B74FB887B820B
:1031800007F10C03002200211846FEF7F7FE034664
:10319000002B03D0FFF73CFD002300E00823184676
:1031A0002837BD4680BD000080B588B000AF022042
:1031B000FEF780FA034683F00103DBB2002B01D057
:1031C000022316E006233B713B1D00220021184616
:1031D000FEF7D4FE0346002B0AD0084B1B78002BC9
:1031E00002D0064B01221A73FFF712FD002300E004
:1031F000082318462037BD4680BD00BF0C2A00209A
:1032000080B584B000AFBA607B600346FB810B469B
:10321000BB8107F10C0107F10E007B68BA68FEF76D
:10322000B7FD034618461037BD4680BD80B584B053
:1032300000AF0346B9607A60FB8107F10E017B683D
:10324000BA680020FEF7A4FD034618461037BD46B5
:1032500080BD80B584B000AF0346B9607A60FB8161
:1032600007F10E007B68BA680021FEF791FD034666
:1032700018461037BD4680BD80B483B000AF78607B
:1032800039607B68002B02D03B68002B01D10523FD
:1032900004E07B681A683B681A60002318460C3704
:1032A000BD465DF8047B704780B483B000AF4FF03B
:1032B00010235B697B607B68B3F1FF3F04D14FF063
:1032C00080535B691B0300E07B6818460C37BD46E2
:1032D0005DF8047B704729DF704700BF184628DF80
:1032E000704700BF184680B586B000AF78600B46C7
:1032F000FB7007F10803102200211846FCF728F89C
:103300007B681B7A012B02D0022B09D015E0002329
:103310003B727B681B693B617B689B8ABB820CE0CC
:1033200001233B727B689A897B68DB89D31A9BB245
:103330003B827B689B897B8200BF7B685B68FB600C
:103340007B681B689B68F97807F10802104698476C
:1033500000BF1837BD4680BD80B483B000AF786031
:103360007B68002B09D07B68074A934205D37B68B2
:10337000064A934201D2012300E0002318460C378D
:10338000BD465DF8047B704750220020602200207B
:1033900080B584B000AF78607B689B8A1A467B68F2
:1033A000DB8AD31AB3F5806F06DA7B689A8A7B686A
:1033B000DB8AD31AFB8102E04FF48063FB817B68D8
:1033C0001A697B68DB8A9B00D0187B68DA687B68A7
:1033D000DB8A9B001344FA891946FFF77CFF0346FA
:1033E00018461037BD4680BD80B582B000AF78600A
:1033F0007B689B891846FFF772FF0346184608371B
:10340000BD4680BD80B400AF104B5B6E013B0F4AE0
:1034100053660E4B5B6E002B06D10D4B1B7823F0D1
:103420000203DAB20A4B1A70084B1B6E0133074ACB
:103430001366064B1B6E042B02D1044B00221A6646
:1034400000BFBD465DF8047B704700BF342A0020F2
:10345000322A002080B582B000AF1F4B1A6E13468F
:103460005B001344DB001C4A13443B601A4B5B6E49
:10347000002B2CD03B681B7A012B02D0022B05D0ED
:1034800009E03868FFF784FF786007E03868FFF7E5
:10349000ABFF786002E009237B6000BF7B68112BE3
:1034A0000ED10E4B1B7823F00203DAB20B4B1A70CD
:1034B0000A4B1B7843F00403DAB2084B1A7006E09B
:1034C0007B68002B03D009213868FFF70CFF00BF91
:1034D0000837BD4680BD00BF342A0020322A0020B4
:1034E00080B500AF0B4B1B7803F00203002B0ED10D
:1034F000084B1B7803F00403002B08D1054B1B7805
:1035000043F00203DAB2034B1A70FFF7A3FF00BFC8
:1035100080BD00BF322A002080B584B000AF786043
:10352000284B00221A707B681B7A012B02D0022BD9
:1035300027D042E07B689B8A1A467B68DB8AD31AD5
:10354000B3F5806F06DA7B689A8A7B68DB8AD31AC8
:10355000FB8102E04FF48063FB817B68DA8AFB89A0
:1035600013449AB27B68DA827B68DA8A7B689B8A2A
:103570009A421FD100217868FFF7B5FEFFF742FF9E
:1035800018E07B689B8901339AB27B689A817B68DB
:10359000DB8901339AB27B68DA817B68DA897B68E0
:1035A0001B8A9A4208D100217868FFF79CFEFFF73A
:1035B00029FF01E000BF00E000BF00BF1037BD469B
:1035C00080BD00BF9C2A002080B582B000AF78602B
:1035D0000B4B1B780133DAB2094B1A70084B1B787E
:1035E000032B08D9064B00221A7008217868FFF7D0
:1035F0007AFEFFF707FF00BF0837BD4680BD00BF5A
:103600009C2A002080B584B000AF78601C4B5B6EB4
:10361000042B01D100232EE0194B1A6E184B5B6E60
:103620001344032B05D8164B1A6E154B5B6E1344CF
:1036300005E0134B1A6E124B5B6E1344043BFB60A8
:103640000F4B5B6E01330E4A5366FA6813465B00FC
:103650001344DB000A4A1344182200211846FBF7E2
:1036600077FEFA6813465B001344DB00044A1A44F1
:103670007B681A60012318461037BD4680BD00BF25
:10368000342A002080B58AB000AF424A424BD31A98
:103690001B09FB603F4A404BD31A1B097B62FFF7B3
:1036A00003FE38623D4B1B7803F00103002B01D071
:1036B00000236AE00023FB6112E0FB691B01364A2C
:1036C0001344BB60BB681B68002B06D0BB685B68FB
:1036D000002B02D07B6A013B7B62FB690133FB61FB
:1036E000FA69FB689A42E8D30023BB6141E0BB69F9
:1036F0001B01294A13447B600023FB75BB69BB7522
:1037000000233B611BE03B691B01234A13443B60E0
:103710003B681B68002B03D03B685B68002B0AD119
:103720003B685B7BFA7D9A4206D23B685B7BFB750C
:103730003B69BB7500E000BF3B6901333B613A69FF
:10374000FB689A42DFD3BB7D1B01134A13447B60A5
:103750007B683A6A5A607B681B7B1B035B423A6A50
:103760001A447B681A607B681B683B62BB69013343
:10377000BB61BA697B6A9A42B9D3084B1B7843F0A4
:103780000103DAB2054B1A70002318462837BD46EC
:1037900080BD00BF6022002050220020322A00207D
:1037A00080B586B000AFF860B9607A607B80304B3E
:1037B0001B7803F00103002B01D1012354E0F868CA
:1037C000FFF7CAFD034683F00103DBB2002B01D0F3
:1037D000022349E07B68002B02D0BB68002B01D19B
:1037E000032341E07B6803F00303002B04D1BB6893
:1037F00003F00303002B01D0062335E0FB681A68B1
:10380000BB689A4207D8FB685A687B889B00B968F6
:103810000B449A4201D2052326E07B88002B01D17C
:10382000042321E007F114031846FFF7EBFE0346DB
:1038300083F00103DBB2002B01D0072314E07B6986
:103840003A6A5A607B69FA681A607B6901221A72C7
:103850007B697A68DA607B69BA681A617B697A8801
:103860009A82FFF73DFE002318461837BD4680BDFB
:10387000322A002080B586B000AFF860B9603B60A6
:103880001346FB802B4B1B7803F00103002B01D167
:1038900001234BE0F868FFF75FFD034683F0010367
:1038A000DBB2002B01D0022340E0BB68002B01D12A
:1038B00003233BE0BB68C3F30B03002B01D00623BB
:1038C00034E0FB681A68BB689A4207D8FB881B0380
:1038D000BA681A44FB685B689A4201D9052325E05F
:1038E000FB88002B01D1042320E007F114031846C4
:1038F000FFF788FE034683F00103DBB2002B01D003
:10390000072313E07B693A685A607B69FA681A609A
:103910007B6902221A727B69BA68120B92B29A8191
:103920007B69FA881A82FFF7DBFD002318461837F7
:10393000BD4680BD322A002080B483B000AF7860DD
:103940007B68002B01D1032304E0054B5A6E7B6892
:103950001A60002318460C37BD465DF8047B70479B
:10396000342A002080B584B000AF78601D4B1A6EF9
:1039700013465B001344DB001A4A1344FB601A4BE6
:103980001B7803F00203002B0ED07B68022B02D0C1
:10399000032B04D020E0F868FFF7BEFD1CE0F868B8
:1039A000FFF712FE00BF17E00F4B1B7803F0040374
:1039B000002B11D00C4B1B7823F00403DAB20A4B16
:1039C0001A70084B5B6E002B06D0074B1B7843F038
:1039D0000203DAB2044B1A70FFF73CFD00BF103748
:1039E000BD4680BD342A0020322A002080B483B036
:1039F00000AF78600B467B807B681A687B8801216A
:103A000001FA03F31A437B681A6000BF0C37BD4606
:103A10005DF8047B704780B483B000AF78600B46DC
:103A20007B807B681A687B88012101FA03F3DB4302
:103A30001A407B681A6000BF0C37BD465DF8047BF6
:103A4000704780B483B000AF78600B467B807B8882
:103A5000012202FA03F31A467B681340002B14BFBD
:103A600001230023DBB218460C37BD465DF8047B0A
:103A7000704780B584B000AF78600023FB810CE014
:103A8000FB8919467868FFF7DCFF0346002B01D05D
:103A9000FB8907E0FB890133FB81FB891F2BEFD9F1
:103AA0004FF6FF7318461037BD4680BD80B586B00F
:103AB00002AFF860B96011461A460B46FB80134608
:103AC0007B71FA887B79009313460122B968F86804
:103AD00000F004F800BF1037BD4680BD80B586B049
:103AE00000AFF860B9607A607B80FB68002B3AD049
:103AF000BB68002B37D07B68002B34D000237B6160
:103B00002EE07B695B00FA6813441B887A889A422E
:103B100023D100233B611BE097F82030002B0AD013
:103B20003B699B00BA6813447A6992B21146184601
:103B3000FFF75CFF09E03B699B00BA6813447A69B0
:103B400092B211461846FFF766FF3B6901333B61AD
:103B50003A697B689A42DFD305E07B6901337B6178
:103B60007B691F2BCDD91837BD4680BD80B586B087
:103B700000AFF860B9601346FB80FB68002B18D0DB
:103B800000237B6112E07B695B00FA6813441B88A9
:103B9000FA889A4207D17B699BB21946B868FFF749
:103BA00050FF034606E07B6901337B617B691F2B75
:103BB000E9D9002318461837BD4680BD80B596B0B8
:103BC00000AFF860B9607A6000233B61BB68002BEE
:103BD0001FD000237B6519E07B6D9BB21946786886
:103BE000FFF72FFF0346002B0DD03B695A1C3A61AB
:103BF0007A6D5200B9680A4412885B0007F15801D7
:103C00000B4423F8442C7B6D01337B657B6D1F2BAC
:103C1000E2D9FB68184607F11003442219460EF05A
:103C2000DAFBF8685837BD4680BD80B483B000AF7A
:103C3000786039603B681B7B002B07D03B685A6873
:103C40007B681A607B6800221A7106E03B681A687C
:103C50007B681A607B6801221A7100BF0C37BD4671
:103C60005DF8047B704780B582B000AF7860396042
:103C70007B681B79002B04D03968786800F00BF85A
:103C800003E03968786800F029F87B681B681846FB
:103C90000837BD4680BD80B483B000AF786039601E
:103CA0003B685A687B681B68D21A3B689B689A42DB
:103CB00007D97B681A683B689B681A447B681A605E
:103CC00006E03B685A687B681A607B6800221A71BC
:103CD00000BF0C37BD465DF8047B704780B483B0ED
:103CE00000AF786039607B681A683B681B68D21A3D
:103CF0003B689B689A4207D97B681A683B689B6857
:103D0000D21A7B681A6006E03B681A687B681A6002
:103D10007B6801221A7100BF0C37BD465DF8047B39
:103D2000704780B483B000AF78604FF0A04318466E
:103D30000C37BD465DF8047B704780B584B000AF9A
:103D40007860084611461A460346FB700B46BB7066
:103D500013467B703B1D1846FFF7E3FFF8607A6857
:103D6000F978BB785B0019437B789B0019433B7E55
:103D70001B0219433B7F1B041943FB6802F5E072E9
:103D800043F8221000BF1037BD4680BD80B584B017
:103D900002AF7860002301930023009300230122E7
:103DA00001217868FFF7C9FF00BF0837BD4680BD15
:103DB00080B584B000AF78603B1D1846FFF7B1FFB7
:103DC000F8607B68012202FA03F31946F86800F0F4
:103DD00095F800BF1037BD4680BD80B584B000AFF8
:103DE00078603B1D1846FFF79CFFF8607B68012256
:103DF00002FA03F31946F86800F08FF800BF103795
:103E0000BD4680BD80B584B000AF78603B1D1846CC
:103E1000FFF787FFF860FB68D3F80435BB60BB6829
:103E2000DA437B68012101FA03F31A40FB68C3F807
:103E300008257B6801229A40BB681A40FB68C3F8DA
:103E40000C2500BF1037BD4680BD80B582B000AFE5
:103E5000786039603B68002B03D17868FFF7BDFFBD
:103E600002E07868FFF7A4FF00BF0837BD4680BDB9
:103E700080B584B000AF78603B1D1846FFF751FF56
:103E8000F860F86800F020F802467B6822FA03F335
:103E900003F0010318461037BD4680BD80B584B0DD
:103EA00000AF78603B1D1846FFF73BFFF860F868ED
:103EB00000F017F802467B6822FA03F303F00103CF
:103EC00018461037BD4680BD80B483B000AF78601F
:103ED0007B68D3F8103518460C37BD465DF8047B77
:103EE000704780B483B000AF78607B68D3F8043546
:103EF00018460C37BD465DF8047B704780B483B02C
:103F000000AF786039607B683A68C3F8082500BF65
:103F10000C37BD465DF8047B704780B483B000AFBA
:103F2000786039607B683A68C3F80C2500BF0C37AD
:103F3000BD465DF8047B704780B584B000AF786003
:103F40000E4A7B6813441B781846FFF7A7FF034609
:103F5000002B14BF01230023FB73FB7B002B14BF3A
:103F600001230023DBB283F00103DBB203F0010382
:103F7000DBB218461037BD4680BD00BFB02D030030
:103F800080B582B000AF7860054A7B6813441B7827
:103F900000211846FFF759FF00BF0837BD4680BD16
:103FA000B02D030080B582B000AF7860054A7B6811
:103FB00013441B7801211846FFF747FF00BF08375D
:103FC000BD4680BDB02D030080B582B000AF002398
:103FD0007B6005E07868FFF7E5FF7B6801337B6075
:103FE0007B68032BF6D900BF0837BD4680BD80B57E
:103FF00082B000AF00237B6005E07868FFF7C0FF68
:104000007B6801337B607B68032BF6D900BF0837E0
:10401000BD4680BD80B582B000AF7860054A7B6840
:1040200013441B781846FFF7EDFE00BF0837BD4666
:1040300080BD00BFB02D030080B582B000AF00236B
:104040007B6009E0094A7B6813441B781846FFF738
:104050009DFE7B6801337B607B68032BF2D9FFF701
:10406000B3FF00BF0837BD4680BD00BFB02D0300C1
:1040700080B584B000AF78600E4A7B6813441B782B
:104080001846FFF7F5FE0346002B14BF012300235B
:10409000FB73FB7B002B14BF01230023DBB283F0F7
:1040A0000103DBB203F00103DBB218461037BD4653
:1040B00080BD00BFB42D030080B485B000AF786030
:1040C0004FF0FF33BB600023FB600DE00B4AFB6841
:1040D00013441B781A467B689A4202D1FB68BB6086
:1040E00005E0FB680133FB60FB68032BEED9BB687E
:1040F00018461437BD465DF8047B7047B42D0300A5
:1041000080B483B000AF7860044A7B6813441B78A6
:1041100018460C37BD465DF8047B7047B42D03008C
:1041200080B483B000AF78604FF080427B68C2F803
:10413000083300BF0C37BD465DF8047B704780B480
:1041400085B000AF0346FB80FB8803F1804300226B
:104150001A60FB8803F180431B68FB60FB6800BFAB
:104160001437BD465DF8047B704780B483B000AF60
:104170000346FB80FB8803F180431B68002B14BFC0
:1041800001230023DBB218460C37BD465DF8047BE3
:10419000704780B483B000AF0346FB714FF080429C
:1041A000FB7903F00303C2F8183500BF0C37BD4696
:1041B0005DF8047B7047000080B483B000AF034615
:1041C000FB710C4A97F907305B0952F82320FB7901
:1041D00003F01F0322FA03F303F00103002B14BFC3
:1041E00001230023DBB218460C37BD465DF8047B83
:1041F000704700BF00E100E080B500AF0020FFF78E
:10420000DBFF034683F00103DBB2002B03D0072161
:10421000002000F02BF900BF80BD000080B582B007
:1042200000AF00237B60144B1B78002B02D085234A
:104230007B601BE0104B00229A600F4B00225A60FB
:104240000D4B00221A610C4B0022DA60FFF7D4FFFD
:104250000DF0D4FD034683F00103DBB2002B02D046
:104260000120FFF796FF044B01221A707B68184665
:104270000837BD4680BD00BFA02A002080B485B0AD
:1042800000AF78607B681B68FB60FB68002B03D085
:10429000FB681A687B681A60FB6818461437BD46CD
:1042A0005DF8047B7047000080B584B000AF034622
:1042B000FB71FB79002B02D10B4BFB6001E00B4B38
:1042C000FB60F868FFF7DAFFB860BB68002B05D029
:1042D000BB685B68FA7910469847F2E700BF00BFF9
:1042E0001037BD4680BD00BFA82A0020B02A00209C
:1042F00080B500AF4FF48070FFF737FF0346002B07
:104300000CD04FF48070FFF71AFF0120FFF708FF71
:104310000D4B01225A700020FFF7C6FF4FF4827048
:10432000FFF723FF0346002B0CD04FF48270FFF7FA
:1043300006FF0220FFF7F4FE034B01229A700120D2
:10434000FFF7B2FF00BF80BDA02A002080B582B079
:1043500000AF78607B68002B02D10020FFF7A4FF3C
:1043600000BF0837BD4680BD80B582B000AF0023D6
:10437000FB71FB1D1846FDF745F90C4B1B7883F0CC
:104380000103DBB2002B01D0FFF748FF074BDB68CE
:104390000133064AD360054B01229A70FB79184617
:1043A000FDF73BF900BF0837BD4680BDA02A0020BD
:1043B00080B483B000AF0346FB71094997F9073019
:1043C0005B09FA7902F01F02012000FA02F241F8BB
:1043D000232000BF0C37BD465DF8047B704700BF4B
:1043E00000E100E080B483B000AF0346FB710949EF
:1043F00097F907305B09FA7902F01F02012000FAF1
:1044000002F2603341F8232000BF0C37BD465DF84F
:10441000047B704700E100E080B483B000AF034646
:104420003960FB7197F90730002B0BDA0D49FB79E6
:1044300003F00F03043B3A68D2B25201D2B20B44EC
:104440001A7609E0084997F907303A68D2B2520162
:10445000D2B20B4483F8002300BF0C37BD465DF891
:10446000047B704700ED00E000E100E080B582B021
:1044700000AF03460A46FB711346BB71BA7997F940
:10448000073011461846FFF7C7FF97F9073018465F
:10449000FFF7A8FF97F907301846FFF789FF00BF1D
:1044A0000837BD4680BD80B582B000AF0346FB80B3
:1044B000FB88184600F024F803461B68012B0CBF4C
:1044C00001230023DBB218460837BD4680BD80B506
:1044D00084B000AF0346FB80FB88184600F010F85C
:1044E00003461A4600231360FB88184600F008F8BC
:1044F00003461B68FB60FB6800BF1037BD4680BDEC
:1045000080B483B000AF0346FB80FB8803F1804397
:1045100003F5C04318460C37BD465DF8047B704771
:1045200080B483B000AF7860044A7B68C2F804337B
:1045300000BF0C37BD465DF8047B7047006000404B
:1045400080B483B000AF7860054BD3F804237B6858
:10455000134018460C37BD465DF8047B704700BF1A
:104560000060004080B483B000AF78600949094A18
:104570007B6803F5A27352F8233043F001027B6895
:1045800003F5A27341F8232000BF0C37BD465DF848
:10459000047B70470060004080B485B000AFF860D5
:1045A000B9601346FB711649154AFB6803F5A273FF
:1045B00052F8233023F4473323F44073FA6802F5AA
:1045C000A27241F822300E480D4AFB6803F5A2732F
:1045D00052F82320BB681B0203F4F851FB791B043B
:1045E00003F440330B431A43FB6803F5A27340F80E
:1045F000232000BF1437BD465DF8047B704700BF21
:104600000060004080B483B000AF7860074A7B68E8
:1046100003F5A27352F823301B0A03F01F03184658
:104620000C37BD465DF8047B704700BF006000405A
:1046300080B483B000AF7860074A7B6803F5A2734B
:1046400052F823301B0C03F00303DBB218460C377F
:10465000BD465DF8047B70470060004080B483B0C5
:1046600000AF78604FF0A04318460C37BD465DF8A8
:10467000047B704780B584B000AF7860084611466F
:104680001A460346FB700B46BB7013467B703B1DFE
:104690001846FFF7E3FFF8607A68F978BB785B00AB
:1046A00019437B789B0019433B7E1B0219433B7FD8
:1046B0001B041943FB6802F5E07243F8221000BFA7
:1046C0001037BD4680BD80B584B002AF78600B4620
:1046D000FB70FA7800230193002300931346002215
:1046E00000217868FFF7C6FF00BF0837BD4680BDD0
:1046F00080B584B000AF78603B1D1846FFF7AEFF71
:10470000F8607A68FB6802F5E07253F8223023F013
:104710000203BB607A68FB6802F5E072B96843F88F
:10472000221000BF1037BD4680BD80B584B000AFF9
:1047300078600B46FB703B1D1846FFF78FFFF86053
:104740007A687968FB6801F5E07153F8213023F449
:104750004031FB6802F5E07243F822107A6879680C
:10476000FB6801F5E07153F82130F9780904194329
:10477000FB6802F5E07243F8221000BF1037BD4617
:1047800080BD80B584B000AF78603B1D1846FFF750
:1047900065FFF860F86800F021F802467B6822FAAD
:1047A00003F303F0010318461037BD4680BD80B502
:1047B00084B000AF78603B1D1846FFF74FFFF860EC
:1047C0007A68FB6802F5E07253F822301B0C03F0A4
:1047D0000303DBB218461037BD4680BD80B483B0FA
:1047E00000AF78607B68D3F8103518460C37BD46AB
:1047F0005DF8047B704780B586B000AFF860B960A3
:104800007A604FF0A0433B61FB687B6112E07B69FB
:104810009B0007F11802134453F8083C1846FFF7B1
:10482000DDFF02467B681A607B6804337B607B692E
:1048300001337B61FA68BB681A447B699A42E6D807
:1048400000BF1837BD4680BD80B485B000AF78602A
:1048500039603B68FB607B68DB08BB607B6803F00A
:1048600007037B6001227B6802FA03F3F968BA68E8
:104870000A441278134018461437BD465DF8047B8D
:10488000704780B485B000AF786039603B68FB60EA
:104890007B68DB08BB607B6803F007037B60FA681A
:1048A000BB681344F968BA680A44127851B201200F
:1048B0007A6800FA02F252B20A4352B2D2B21A70C5
:1048C00000BF1437BD465DF8047B704780B483B0E9
:1048D00000AF78600D4A7B681344303393F90030A1
:1048E000002B09DB094A7B681344303393F900300D
:1048F000072B01DC012300E0002303F00103DBB2FE
:1049000018460C37BD465DF8047B7047B42A00207A
:1049100080B483B000AF7860084A7B6813443033BA
:1049200093F90030072BCCBF01230023DBB21846DC
:104930000C37BD465DF8047B704700BFB42A0020E9
:1049400080B483B000AF7860074A7B68134430338B
:1049500093F90030DB43DBB2DB09DBB218460C37DE
:10496000BD465DF8047B7047B42A002080B485B052
:1049700000AFF860B9607A60FB70BB6859B2104A4A
:10498000FB68134430330A461A700D49BB687A68D5
:1049900041F82320FB7883F00103DBB2002B08D021
:1049A000BB68083BFA6851B2054A13440A4683F8CB
:1049B000502000BF1437BD465DF8047B704700BF30
:1049C000B42A002080B483B000AF7860054A7B68C9
:1049D00013443033FF221A7000BF0C37BD465DF818
:1049E000047B7047B42A002080B483B000AF7860A5
:1049F000054A7B681344303393F9003018460C376E
:104A0000BD465DF8047B7047B42A002080B483B0B3
:104A100000AF7860044A7B6852F8233018460C37A0
:104A2000BD465DF8047B7047B42A002080B588B08D
:104A300000AFF860B9601346FB71FF23FB77FB7989
:104A4000002B01D0002300E008237B61FB79002BC1
:104A500001D0082300E00C233B617B69BB6112E0BD
:104A60000E4ABB6952F82330B3F1FF3F08D1FB79FE
:104A7000BA68B969F868FFF779FFBB69FB7706E0A8
:104A8000BB690133BB61BA693B699A42E8D397F9C4
:104A90001F3018462037BD4680BD00BFB42A002015
:104AA00080B483B000AF0346FB71FB790A4A4FF034
:104AB000FF3142F82310FB79072B06D9FB79083B1D
:104AC000054A1344FF2283F8502000BF0C37BD462F
