:020000021000EC
:10F000000000012001A3020029A302002BA302009B
:10F010002DA302002FA3020031A302000000000074
:10F0200000000000000000000000000033A3020008
:10F0300035A302000000000037A3020039A302003C
:10F04000992302003BA30200493102003BA30200C6
:10F050003BA302003BA30200D52702003BA3020012
:10F060003BA302003BA302003BA302003BA3020020
:10F070003BA302003BA302003BA302003BA3020010
:10F080003BA3020065FD01003BA302003BA302007D
:10F0900029FE01003BA30200E5BC02003BA30200E5
:10F0A0003BA302003BA302003BA302003BA30200E0
:10F0B0003BA302003BA30200000000000000000090
:10F0C0003BA302003BA302003BA302003BA30200C0
:10F0D0003BA302003BA302003BA302000000000090
:10F0E0000000000000000000000000000000000020
:10F0F0000000000000000000000000000000000010
:10F1000000000000000000000000000000000000FF
:10F1100000000000000000000000000000000000EF
:10F1200000000000000000000000000000000000DF
:10F1300000000000000000000000000000000000CF
:10F1400000000000000000000000000000000000BF
:10F1500000000000000000000000000000000000AF
:10F16000000000000000000000000000000000009F
:10F17000000000000000000000000000000000008F
:10F18000000000000000000000000000000000007F
:10F19000000000000000000000000000000000006F
:10F1A000000000000000000000000000000000005F
:10F1B000000000000000000000000000000000004F
:10F1C000000000000000000000000000000000003F
:10F1D000000000000000000000000000000000002F
:10F1E000000000000000000000000000000000001F
:10F1F000000000000000000000000000000000000F
:10F2000010B5054C237833B9044B13B10448AFF360
:10F2100000800123237010BD542200200000000054
:10F2200048CC02000C4B43B10C480D4910B5AFF36C
:10F2300000800C48036823B910BD0A48036833B93D
:10F240007047094B002BF7D0BDE810401847064B1C
:10F25000002BF5D0184700BF0000000048CC02008A
:10F26000582200204022002000000000154B002BF7
:10F2700008BF134B9D46A3F5803A00218B460F46ED
:10F280001348144A121A00F063F80F4B002B00D0F9
:10F2900098470E4B002B00D0984700200021040017
:10F2A0000D000D48002802D00C48AFF3008000F09C
:10F2B0002BF82000290005F007F800F011F800BF36
:10F2C0000000080000000120000000000000000015
:10F2D0005422002020360020000000000000000022
:10F2E00008B5074B044613B10021AFF30080054B6E
:10F2F0001868836A03B19847204600F031F800BFD0
:10F300000000000034CA020070B50D4E0D4CA41B65
:10F31000A4100025A54209D10B4E0C4C0DF07EFB2C
:10F32000A41BA4100025A54205D170BD56F82530B8
:10F3300098470135EEE756F8253098470135F2E752
:10F340003822002038220020382200203C220020D1
:10F3500002440346934200D1704703F8011BF9E7CA
:10F36000FEE700BF0378012B04BF014A137070470A
:10F37000722200202DE9F04FC7B01C4691480029A9
:10F3800014BF0A23002316460D46009303F0D0FE57
:10F39000002840F0E380002C00F0E48006AB8346B8
:10F3A0000293519B539A9E18202501960099029A28
:10F3B0000B465B4404933133D318039302EB0B07E2
:10F3C00000295DD07B4203F003038B4228BF0B462C
:10F3D000062900F2EB800A463946012A01F8015B52
:10F3E00000F0E280022A7D7007F1020100F0DC806B
:10F3F000032ABD7007F1030100F0D680042AFD70D6
:10F4000007F1040100F0D080062A3D7107F10501E3
:10F4100040F0D2807D71B91D1346009890422DD0E6
:10F42000009EA6EB020CACF1040006F1FF3A800846
:10F43000AAEB020A0130BAF1020F4FEA800E13D98B
:10F440005A44029E4FF0203A012806EB020B46F880
:10F4500002A005D00228CBF804A001D0CBF808A068
:10F46000E6457144734409D0009E0D705A1CB242A7
:10F4700004D202339E424D7000D98D70009B1F4410
:10F48000039B059707F1330907F1030A264603F1A9
:10F4900001084C46019FDDF844910DE00AF8035C39
:10F4A0000AF8025C0AF8015C0AF1030AA24508F8AE
:10F4B000015C08F101082FD0B742EFD9B1456DD9F1
:10F4C000509B13F806B00AF8015C4FEA2B105FFA64
:10F4D00080FE09280BF00F00D4BF0EF1300E0EF1A4
:10F4E000370E092894BF303037300AF803EC0AF899
:10F4F000020C0CF0C1FD58440AF1030A407810F0E8
:10F50000970F08BF4FF02E0BA24508F801BC06F17B
:10F51000010608F10108CFD1049B03980197059FCC
:10F52000029903F1430A0D220A23027443745246DE
:10F53000254887F830500CF0CEFD5FFA8AF2224958
:10F54000204803F04BFD3446834638B91D4803F08C
:10F55000EFFD18B9019B9C42FFF428AF204647B04D
:10F56000BDE8F08F55B306A902912B68174A0846EB
:10F570000D464FF480710CF0B9FDB0F1000BEDDBDE
:10F580005D4430460CF0E6FDC2280246314628BFF5
:10F59000C222284693440CF09EFD02E7A6EB090028
:10F5A000529B13F800B08EE7134636E71A463946E9
:10F5B000002B3FF435AF0FE705232EE706AD02958C
:10F5C000A346DEE7242000207422002058CA02004F
:10F5D000F0B56548C7B00C4616461D4603F0A8FDB9
:10F5E000A0B9B4B14FF480712368604A06A80CF04A
:10F5F0007DFD011E0ADB4C9B0C46062B00F2B280FF
:10F60000DFE803F012626C2E783C4E00002047B019
:10F61000F0BD4C9B062B00F2A280DFE803F00494BF
:10F620008F8A807B85004C9C30460CF093FD03193B
:10F63000FF2B054640F28C80002DE7DB6219B2F506
:10F64000807FE3D8D4B206A949480CF044FD224695
:10F650004749454803F0C2FCB0FA80F04009D6E7BC
:10F6600006AB5818C1F58071AA682B686D680095C3
:10F67000019232460CF03AFD0546DDE706AB58181C
:10F68000C1F580712F69EA682B680397AF686D68D0
:10F6900002928DE8A00032460CF028FD0546CBE72B
:10F6A00006AB5818C1F580716A692F692B680492FE
:10F6B000EA680397AF686D6802928DE8A000324651
:10F6C0000CF014FD0546B7E706AB5818C1F580717C
:10F6D0002B6832460CF00AFD0546ADE706AB58181C
:10F6E000C1F580716A682B68009232460CF0FEFC0E
:10F6F0000546A1E706AB5818C1F58071EA682B688A
:10F70000AF686D6802928DE8A00032460CF0EEFC06
:10F71000054691E74FF4807106A80024B2E74FF444
:10F72000807106A80024E9E74FF4807106A8002440
:10F73000BAE74FF4807106A8002495E74FF4807172
:10F7400006A80024CEE74FF4807106A80024BFE786
:10F7500006AB314618192A460CF0BDFC6CE70024B4
:10F76000224670E7002569E72420002058CA0200DD
:10F7700074220020F0B5174F3B7889B01BB1164BAF
:10F780001B78834222D0154D06460FCD6C460FC420
:10F7900095E80F00062584E80F00082105220723BD
:10F7A0000F48019103920095029303F093FB002E02
:10F7B0000C4A0B4818BF0022694603F09FFA18B99B
:10F7C000054A012316703B7009B0F0BD002009B056
:10F7D000F0BD00BF712200207022002038CA020054
:10F7E0002420002065F3010000487047D1F5010096
:10F7F0000048704775F3010038B50020FFF7BAFFE5
:10F80000044668B9FFF7F0FF0546FFF7F1FF054B27
:10F81000FF22C3F810541C605C60C3F814049A60A3
:10F82000204638BD742300200120FFF7A3BF00BF8E
:10F830002DE9F0434F4E716832688A428BB078D020
:10F84000B76807EA0105023506EB85020131546805
:10F8500014F003030ED1C4F3891303EB94530B4448
:10F8600007EA0305023506EB8502591C546814F0BB
:10F870000303F0D0022B2CD0C4F38313C4F39522DE
:10F88000002B73D00DF1100C604601EB030E07EA5C
:10F89000010506EB850501F10108F045E96840F82E
:10F8A000041B4146F3D10093C4F3C2006346D6F86B
:10F8B00010440021A04748B1C6F804803068B0EB7E
:10F8C000080018BF01200BB0BDE8F083D6F8048013
:10F8D000F4E701F1010827EA080001EA0703013013
:10F8E00006EB830380004FEA94598145DA68C4F33C
:10F8F000891322D988B307EA0801C7B20331A9EBFB
:10F900000700DFF874E006EB8101C0B28DE88240A9
:10F910000390D6F814740021C4F3C200B8474845D8
:10F9200020D006EB850560F38F146C60D6F8048058
:10F93000C4E700200BB0BDE8F08307EA08000330FD
:10F9400006EB800000218DE8010203910291D6F8B8
:10F950001474C4F3C200B847E1E786465FFA89F73A
:10F960000549D3E7033008EB9008A5E788460DF179
:10F97000100C98E774230020802300202DE9F84F15
:10F98000254B93F800E0BEF1000F31D0DFF88CB0CA
:10F99000DFF88CA0DFF88C900024012703E001340D
:10F9A000E4B2744524D226B2DBF80050DAF8003015
:10F9B00015F8360007FA00F1194205EBC608EED03B
:10F9C00023EA0103CAF8003002F0FAFE15F83660A7
:10F9D000D9F8003007FA06F52B4000FA06F18B4201
:10F9E00008D00D4B013493F800E0E4B27445DAD34B
:10F9F000BDE8F88FD8F80430002BF2D098F8011049
:10FA0000A1F10101B1FA81F14909091AB1FA81F1B3
:10FA1000490930469847E4E78C270020BC2700209E
:10FA2000B8270020B427002070B50646114800F022
:10FA30004FFE40B9104D01242B68B4401C4203D046
:10FA400023EA04042C6070BD304602F0B9FE0B4E70
:10FA5000326860B122432B68094932601C432C6034
:10FA6000044809680022BDE8704000F0DBBD22EACE
:10FA70000402F0E794270020B8270020B4270020D4
:10FA800090270020042A01D8072070472DE9F04173
:10FA900082B088460546174602F066FD002836D03B
:10FAA0001D4C1E481E491F4A1F4B2560002608F1A9
:10FAB000FF3480F800800F6016601E60E4B2B8F179
:10FAC000000F1ED0DFF86C80032701E0FF2C18D058
:10FAD00023B205EBC30215F8330093788DF8047058
:10FAE000424601A98DF806608DF807608DF8053053
:10FAF00002F044FD013CE4B20028E7D002B0BDE8CA
:10FB0000F0810A4A0A48002100F07AFDF6E702F087
:10FB1000E9FC0028C4D0F1E7BC2700208C27002096
:10FB200090270020B4270020B82700207DF901008D
:10FB300060CA020029FA010070B5084D2B785BB14C
:10FB4000074E00243368012113F8340002F0D6FD7B
:10FB50002B780134A342F5D8002070BD8C270020FB
:10FB6000BC27002000B585B000230390194601AAE8
:10FB700044F20100ADF80430029300F003F805B040
:10FB80005DF804FB08B5FFF74FFEFFF751FE0028B4
:10FB9000FBD1BFF34F8F0549054BCA6802F4E06201
:10FBA0001343CB60BFF34F8F00BFFDE700ED00E0D4
:10FBB0000400FA0512F0030301D007207047F0B4E7
:10FBC000094D0A4F2B700A4D3A604C1C2B70094F9F
:10FBD000094D0A4E3880E400A4B2224429803260E4
:10FBE0001846F0BC704700BFC0270020C82700207F
:10FBF000D0270020CC270020CE270020C4270020BB
:10FC00002DE9F0472C4D2B888B4282B003D209207E
:10FC100002B0BDE8F087064602A84FF0000800F8E1
:10FC2000018D17460C4600F08FFD244B244A2548D1
:10FC3000197813780088DBB2834238BF0133C9B228
:10FC400038BF5FFA83F841451FD092F800801378DF
:10FC5000DFF87890DBB2984286BF0133DBB2002335
:10FC60005FFA88F89DF80700137000F093FDD9F84B
:10FC700000300FFA88F24FEAC20A43F83270534458
:10FC800006B144B900209880C2E79DF8070000F053
:10FC900081FD0420BCE70C4B28881B68314608FB1B
:10FCA000003022460CF017FAD9F800309A440020B0
:10FCB000AAF80440ACE700BFCC270020D0270020E2
:10FCC000C0270020CE270020C4270020C8270020FE
:10FCD0002DE9F047174C184D22782B789A4226D000
:10FCE000DFF85C90DFF85C80144FDFF85CA02378CD
:10FCF000D9F800203888D8F80060DBB20FFA83FC0E
:10FD000002EBCC0103FB0060898852F83C30984735
:10FD10002378BAF80020DBB29A4203F101038CBFCA
:10FD2000DBB20023237022782B789A42DFD1BDE822
:10FD3000F08700BFD0270020C0270020CC2700205C
:10FD4000C8270020C4270020CE270020082910B58E
:10FD5000044602D00020FFF705FF23686068BDE875
:10FD6000104018472DE9F041274A284B0025C2F8DA
:10FD70004051C2F84451C2F84851C2F84C51C2F83F
:10FD80000051C2F804511B6882B023B32049D2F855
:10FD900004450A68DFF88C80A41A1A6824F07F44AE
:10FDA000A2422F4609D8197CDE69A41A1544A9B9C4
:10FDB0001EB133461A68A242F5D91649164A0B7885
:10FDC00012789A4219D01549154A41F823504FF438
:10FDD0008013C2F8003102B0BDE8F0819A691F7447
:10FDE00001925B690093424608216846FFF708FFCD
:10FDF0000028DDD0FFF7B6FEDAE7531CDBB2022B9A
:10FE000008BF00230B70DEE700100140F42800203B
:10FE1000F0280020ED280020EC280020E428002015
:10FE200000E100E04DFD01002DE9F04F7D4A7E49E3
:10FE30001378097899428BB03BD00133DBB27B4910
:10FE40000491022B0D687A49069108BF00231370B4
:10FE5000784A084652F82310D0F80090049A6B189C
:10FE6000002423F07F434E46AC46136020462746CD
:10FE70002546AEB133688B4200F2ED81F4683760FD
:10FE8000C91A1844F3693CB10CEB000E2EF07F4206
:10FE9000F561B460726035461E460124002EE9D13A
:10FEA0002A46B146002C40F0DB8201230793069BD3
:10FEB00007E05F4B5D4A0492D3F80090069300225E
:10FEC0000792D3F800A05C4BDFF874C11B78059350
:10FED000049B186800234946CE460893D1460993EF
:10FEE00003934FF0010B17469A46804637B37C6860
:10FEF000BD683B46FF695148A4EB080222F07F42EF
:10FF0000824258D815441D60002283F810B05A6010
:10FF10009A60DA6100296ED00868854263D90C4680
:10FF200003E01068A8424FD21446E2692D1A002A55
:10FF3000F7D11D60DA61E361002FD8D10297CDF8C7
:10FF400004E09CF801709CF800200025974200F026
:10FF50008680104600EB40000CEBC000541C9CF85F
:10FF60000230E2B204798CF80020934204BF8CF88E
:10FF700000500022022C83684ED0032C40D0012C6C
:10FF8000E4D11E7C002EE1D1C4685C6005699D60EF
:10FF90004269DA6082699A61059A029FDDF804E09D
:10FFA000002AA8D03446A4EB080224485E6022F060
:10FFB0007F428242A6D9A8EB040424F07F44AC42DD
:10FFC00008D22D1B1D609FE7401B10601D60DA6189
:10FFD000E361B1E7002583F810B01D605D609D60AE
:10FFE000DD6141B10868451B0D609946D9614FF04C
:10FFF000010A19467AE7994619464FF0010A75E752
:020000022000DC
:100000000029A3D00022CB690A741946002BFAD12B
:1000100099464FF0010A94E7D9B19942084615D1A3
:1000200010E100BFEC280020ED280020F02800207F
:10003000F4280020E4280020E0280020FEFF7F00B4
:10004000D4270020A34200F0E8802046C469002C99
:10005000F8D10E4697421D7431467FF47AAF404680
:10006000D046CA46DDF80490B8F1000F40F0F481A4
:10007000099B002B40F0ED81089B1BB17B4B9DF849
:1000800014201A70039B13B9494500F04C810029D4
:1000900000F04E81764C049BD4F804051B68754D26
:1000A0000F682978C21A22F07F420332002951D109
:1000B0007149DFF8C8C1DFF8C8E14FF48036C4F8F1
:1000C0004463C4F804634FF40036C1F880610E60E5
:1000D000012626602F21DCF8004000BF00BF00BFD2
:1000E00000BF00BF00BF00BF00BF74452FD000BFDE
:1000F00000BF00BF00BF00BF00BF00BF00BF00BF08
:1001000000BF00BF00BF00BF00BF00BF00BF00BFF7
:1001100000BF00BF00BF00BF00BF00BF00BF00BFE7
:1001200000BF00BF00BF00BF00BF00BF00BF00BFD7
:1001300000BF00BF00BF00BF00BF00BF00BF00BFC7
:1001400000BF00BF00BF00BF00BF00BF00BF01393C
:10015000C3D12E7097422CBFDB199B18444923F062
:100160007F43C1F84035D1F80425121A1B1A22F03A
:100170007F4223F07F4303329A4248D9D1F80435B5
:100180003E4AC1F8403512683D492F2300BF00BFE9
:1001900000BF00BF00BF00BF00BF00BF8A422FD01A
:1001A00000BF00BF00BF00BF00BF00BF00BF00BF57
:1001B00000BF00BF00BF00BF00BF00BF00BF00BF47
:1001C00000BF00BF00BF00BF00BF00BF00BF00BF37
:1001D00000BF00BF00BF00BF00BF00BF00BF00BF27
:1001E00000BF00BF00BF00BF00BF00BF00BF00BF17
:1001F00000BF00BF00BF00BF00BF00BF00BF00BF07
:10020000013BC3D11C4B4FF40032C3F80021174A05
:10021000002313700BB0BDE8F08F834212D00E465E
:10022000DC69D3F800E0C46134B122687244226012
:100230009CF800209CF801700398B14218BF01207F
:10024000039007E7D1F81C90B9F1000F1AD04E4681
:100250004FF0010AE4E72A46B146002C60D15B1A50
:10026000C9F8003001230793069B2AE6E028002006
:1002700000100140E128002000E100E0C82000203B
:100280000024F400784E794CC6F808B0784E4FF050
:100290002F0E366800BF00BF00BF00BF00BF00BF09
:1002A00000BF00BFA6422FD000BF00BF00BF00BFED
:1002B00000BF00BF00BF00BF00BF00BF00BF00BF46
:1002C00000BF00BF00BF00BF00BF00BF00BF00BF36
:1002D00000BF00BF00BF00BF00BF00BF00BF00BF26
:1002E00000BF00BF00BF00BF00BF00BF00BF00BF16
:1002F00000BF00BF00BF00BF00BF00BF00BF00BF06
:1003000000BF00BF00BF00BFBEF1010EC2D1012679
:1003100034460896C8464E4605940994A2467FE79F
:10032000069806609BE7079B002B3FF470AFAEE694
:100330004D4A504B4E4E4D4C4FF480304FF40037E9
:100340000125C3F88070C2F848032F23C2F80803C0
:10035000556030681E4600BF00BF00BF00BF00BF31
:1003600000BF00BF00BFA0422FD000BF00BF00BF32
:1003700000BF00BF00BF00BF00BF00BF00BF00BF85
:1003800000BF00BF00BF00BF00BF00BF00BF00BF75
:1003900000BF00BF00BF00BF00BF00BF00BF00BF65
:1003A00000BF00BF00BF00BF00BF00BF00BF00BF55
:1003B00000BF00BF00BF00BF00BF00BF00BF00BF45
:1003C00000BF00BF00BF00BF00BF013EC3D19560AA
:1003D000049A116000BF00BF00BF00BF00BF00BF94
:1003E00000BF00BFA0422FD000BF00BF00BF00BFB2
:1003F00000BF00BF00BF00BF00BF00BF00BF00BF05
:1004000000BF00BF00BF00BF00BF00BF00BF00BFF4
:1004100000BF00BF00BF00BF00BF00BF00BF00BFE4
:1004200000BF00BF00BF00BF00BF00BF00BF00BFD4
:1004300000BF00BF00BF00BF00BF00BF00BF00BFC4
:1004400000BF00BF00BF00BF013BC3D10A4B197002
:10045000DDE6049B18600FE6069BC3F800A007E6E4
:10046000069B1E6021E500BF001001400024F4003F
:10047000C820002000E100E0E1280020F0B4564B45
:10048000564A574E574C4FF480304FF400310125F7
:10049000C2F88010C3F848032F21C3F808035D6039
:1004A00030680E4600BF00BF00BF00BF00BF00BFE6
:1004B00000BF00BFA0422FD000BF00BF00BF00BFE1
:1004C00000BF00BF00BF00BF00BF00BF00BF00BF34
:1004D00000BF00BF00BF00BF00BF00BF00BF00BF24
:1004E00000BF00BF00BF00BF00BF00BF00BF00BF14
:1004F00000BF00BF00BF00BF00BF00BF00BF00BF04
:1005000000BF00BF00BF00BF00BF00BF00BF00BFF3
:1005100000BF00BF00BF00BF013EC3D19D6000BF50
:1005200000BF00BF00BF00BF00BF00BF00BFA042B0
:100530002FD000BF00BF00BF00BF00BF00BF00BF83
:1005400000BF00BF00BF00BF00BF00BF00BF00BFB3
:1005500000BF00BF00BF00BF00BF00BF00BF00BFA3
:1005600000BF00BF00BF00BF00BF00BF00BF00BF93
:1005700000BF00BF00BF00BF00BF00BF00BF00BF83
:1005800000BF00BF00BF00BF00BF00BF00BF00BF73
:1005900000BF0139C3D1144E144D154C1549164FE7
:1005A00000203070286020704FF48015E0240B2666
:1005B000087048708E7038701049C2F8805182F807
:1005C00014431560C3F8080582F81143D3F80435C5
:1005D0000B60F0BC704700BF0010014000E100E07C
:1005E000C82000200024F400E1280020F428002086
:1005F000EC280020D4270020ED280020F02800203F
:10060000074B9B780BB9082070473AB130B10368AB
:10061000187C0028F7D159745A6170470720704739
:10062000D42700202DE9F043264CA37883B01BB9D2
:10063000082003B0BDE8F0830028F9D0042903D8CE
:10064000072003B0BDE8F0834369002BF0D00646D5
:1006500002A8737C0025012B00F8015D0CBF8946C0
:10066000A94690460F4600F06FF86378A07821788D
:100670005A1CD2B2904208BF2A4691421BD003EBCB
:10068000430304EBC30301200F4918719E60D1F8A6
:1006900004159DF80700D9601F61C3F81490C3F8D2
:1006A0001880627000F076F8084B4FF480122846EC
:1006B000C3F80021BDE79DF8070000F06BF80420A7
:1006C000B7E700BFD42700200010014000E100E0A0
:1006D00070B51B4CA37882B013B9082002B070BD6E
:1006E0000028FAD04369002BF7D0064602A800255F
:1006F00000F8015D357400F027F86278A078217861
:10070000531CDBB2984208BF2B46994212D002EB31
:10071000420204EBC20202219DF8070096601171AB
:10072000637000F037F8074B4FF480122846C3F887
:100730000021D3E79DF8070000F02CF80420CDE756
:10074000D427002000E100E070B4EFF3108472B60B
:100750000D4B9A68AAB90D490D4E01259D60D1F83F
:10076000805035401D60C1F88060D1F884505D60D4
:100770004FF0FF33C1F88430027004B962B670BC28
:10078000704701230370F8E71036002000E100E015
:10079000FC06FFBD094B9A6872B168B910B4EFF35B
:1007A000108272B606491C680C605C684C609860E8
:1007B00002B962B65DF8044B704700BF10360020E6
:1007C00000E100E0F0B52B4C2B4F6268668883B0E7
:1007D000002A48D036015388B9190333496802EB1F
:1007E000830201F58050824225D21368013318BF7D
:1007F0004FF6FF751FD09388AB4213D013888BB18F
:1008000062601E485388868801681D4800250333AE
:1008100000959BB201EB86010325257001F04EFA8D
:1008200003B0F0BD5388033302EB8302824202D24D
:1008300013680133DFD13E44B38963B10F4D1048D3
:1008400029680227052600230122AF80267001F0C7
:100850008BFA03B0F0BD0122094801F085FA0423A8
:10086000237003B0F0BD3601BB19596801F10802CD
:10087000B7E700BF70290020FC2900201C2A0020B7
:1008800044220020F0B543688E464BB1324A1468CA
:10089000A34205D35268934202D813F003023AD020
:1008A00000232E4EAEF800304FF0010C4FF6FF75CE
:1008B0007768002307F5805453B35A88033203EB5B
:1008C00082039C4217D91A68013214D09A88AA422E
:1008D0000BD01A884AB1026899689142ECD1204A3B
:1008E0004360138903810120F0BD5A88033203EB72
:1008F0008203A342E7D30CF10103AEF800C01FFA54
:1009000083FCBCF1030F06F11006D1D10020F0BD2D
:1009100007F10803D5E7124C05892489A542BFD108
:1009200005689C68A542BBD10C4C6068834205D920
:1009300000F58050834201D2134608E06269934279
:10094000E4D902F58052934238BF0123DED2AEF8DB
:1009500000300120F0BD00BF44220020FC2900200F
:1009600070290020B3F804C0BCF1010F53D82DE961
:10097000F0419046294A4FF6FF7702EB0C1E002209
:100980009EF80040002C33D11C68002C3ED06588B6
:10099000DEF80460033504EB850406F58056B442A6
:1009A00025D22568013522D0A588BD4219D02588D9
:1009B000BDB11C6018B1A6880588AE42E5D119B159
:1009C00026880D88AE42E0D1A268C8F800201A68D7
:1009D000134BC8F804201B89A8F808300020BDE894
:1009E000F0816588033504EB8504B442D9D31A60DD
:1009F0000CF1010C1FFA8CFCBCF1020FA3F804C02F
:100A00000EF1100EBCD10A20BDE8F081DEF80460C2
:100A100006F10804C1E70A20704700BFFC29002046
:100A2000702900202DE9F04FA94C256FEF007E1BA7
:100A3000B6008BB0A25D013A824604EB0609052A96
:100A400031D8DFE802F05D3E3E1D1D03002840F076
:100A5000D680DFF8908298F80C30002B00F01283DB
:100A600098F8003088F80C00013B062B1BD8DFE813
:100A700013F00701C302CE01AF011A00F502E5022F
:100A8000002840F0BC80A7EB050B04EB8B0B9BF818
:100A90000480B8F1010F00F05083C0F03983B8F141
:100AA000020F00F012810F23A15D06938B1E012B14
:100AB00040F2AC80052A34D8DFE802F030816A5E6B
:100AC00094907B1B04EB8303DFF814B2B3F812801D
:100AD0000BEB0818002840F0AA80B8F808A0D8F856
:100AE00004101B7C01EB8A0A062B00F29A83DFE8D4
:100AF00013F0A601E901D201360220020602030228
:100B0000002840F08D8099F80430032B00F2058115
:100B1000DFE813F03E014B012E010A0100238DF89E
:100B200014306C4D05F1200655F8043F0BB105A8B3
:100B30009847B542F8D1206FC0EBC00004EB8000AD
:100B40001C220021FEF704FC636F3BB1226F0132CF
:100B5000013B02F00302636722673BB95E4A1378E8
:100B600023F0040313700BB0BDE8F08F0020FFF7F3
:100B700059FF0BB0BDE8F08F7B1B04EB830303220E
:100B8000D3F80610DB68089107938DF81420C8E7A6
:100B90007B1B04EB830302211A7C1E899D88D86885
:100BA000ADF82060A2F10603B3FA83F35B098DF878
:100BB0002430ADF8225007908DF81410B1E77B1B5C
:100BC00004EB8303012218899988DB68ADF82000C3
:100BD000ADF8221007938DF81420A2E705238DF8B5
:100BE00014309EE77B1B04EB83030422DB88ADF803
:100BF000203000238DF81420ADF8223091E7A15D5C
:100C0000012306938B1E012B3FF654AF334B99F80B
:100C10001660186C596C3044891B1864596449E794
:100C20002D490B7823F001030B7001233CE7DB888F
:100C3000B8F80AE0B8F80800C3F57F41FD31033386
:100C400003447144A8F80830A8F80A1001232BE7E0
:100C5000234BB8F808101A781B7CB2FA82F2B3FA68
:100C600083F352095B09013188F80A2088F80B30B8
:100C700000220123A8F8081088F80C2088F800301A
:100C800098F80A304BB1164A9389002188F80A1067
:100C90001BB9927B002A40F0A48298F80B304BB12C
:100CA0000F4B9A8B002188F80B101AB99B7F002BF1
:100CB00040F096827A1B002314F8222088F8003036
:100CC000013AA8F80230C8F8043000230693F1E690
:100CD00084290020002900206C29002024290020DC
:100CE000FC290020702900204FF001084FEA081865
:100CF0000BEB08034FF0000A5968C54ACDF800A075
:100D00000223C44800F0DAFF0BF808A000283FF4E3
:100D10002AAF7B1B14F82320013ABF490B7823F03C
:100D200001030B700E23BFE6DFF8F882B84AD8F84B
:100D30000010B8484FF0000A0223CDF800A000F0E0
:100D4000BDFFB64BB6495B88D8F800E089F804A02F
:100D50001B01CA1801F803A05368B8F80410C8F8BA
:100D600000300223C2F804E01181A8F80430CDE776
:100D7000DFF8B082A748D8F800100023012200F065
:100D8000F3FF02220023A8F8042089F80430BDE70D
:100D9000A44BA54A19689F4800230093022300F042
:100DA0008DFF012389F80430B0E7DFF874B29BF8B7
:100DB0000030022B00F022829BF81030022B93D0DF
:100DC00095490B7843F0020323F001030B707CE795
:100DD000B8F80230924A02EB03129389002B00F01C
:100DE000DB81904B8B48196802229A8005220023F0
:100DF00088F80020012200F0B7FF0346002B3FF4E3
:100E0000B2AE1C2202FB05F2A25C013A4CE6854818
:100E1000D8F80420D0F800E0818853887D480EEB94
:100E200081014FF0000ECDF800E003334FF0030EC8
:100E30009BB288F800E000F041FF0346DEE70023A4
:100E4000321D5146224400937248012300F036FFC0
:100E50007B1B9B00E2180221117400283FF483AE33
:100E6000E25C0E23013A791B04EB8101B8F80AC059
:100E7000C988B8F808E0C1F57F40FD30033160440F
:100E80007144A8F80A00A8F8081041F61D518B42D9
:100E90003FF41BAF08E6002306F10C020AF108013B
:100EA000224400935B48012300F008FF7B1B9B005A
:100EB000E218917D00290CBF012103211174002843
:100EC000CED150E6002306F108020AF104012244C3
:100ED00000935048012300F0F1FE7B1B9B00E118BA
:100EE000E25C032A0CBF052306230B7400283FF4A1
:100EF0003AAE013A0E23B6E741F61D53B3E74B4B2A
:100F00004B4AB3F800A0516842484A4A0023009374
:100F1000012300F0D3FE002840F035817D1B04EB57
:100F200085040BEB0A1A0622012322748AF80E307C
:100F300019E6A7EB050B4FEA8B0B04EB0B033C48C0
:100F40009B690360394900234360FFF79BFC00283D
:100F50007FF475AF14F80B200A23013AA4E5DFF8FB
:100F6000D8E0DEF844C0BCF1000F00F0F180DEF8FC
:100F7000401028485EF83120A7EB050B04EB8B0BE3
:100F80000EEBC103013101F00701CEF840100CF166
:100F9000FF3CBBF81410CEF844C04FF0000E039392
:100FA0000AEB81019B88CDF800E000F087FE039AF0
:100FB0009BF816309188BBF81420013B0A44DBB241
:100FC000ABF814208BF8163013B901238BF81030CE
:100FD00000283FF4C8AD7A1B0E2314F82220013AF2
:100FE00041E7104AD8F804109388498803330B442A
:100FF0000221938088F80010FFF7E4FB0346002BE2
:101000003FF4B1AD1C2202FB05F2A25C013A3CE7C1
:1010100068CA0200442200206C29002070290020A8
:10102000FC2900201C2A002070CA0200262A002069
:10103000F828002064CA0200242900207A4B7B4A49
:1010400019687B4800230093C8F80430072388F808
:101050000030022300F032FE0346CFE6B8F802303B
:10106000DFF8E0B11B019B4406200023DBF80410ED
:10107000704A0093022388F800006D4800F01EFEBD
:101080000346BBE698F80030072B2CD801A151F895
:1010900023F000BF510C0200E7100200E71002002D
:1010A000E30F0200BD1002003D1002003D100200DF
:1010B000B5100200012388F80030E1E5B8F80230ED
:1010C000DFF880B1584A1B010BEB03011068D1F81F
:1010D00004C0B2F804E048600220C2F800C0A1F8E1
:1010E00008E09080BFE7013B062B3FF6DCAC01A196
:1010F00051F823F0810C0200F90F02000F0E0200DC
:10110000D10D0200A70A02005D1002003D1002008E
:10111000DBF80C30CDF818A005A80DF11201CDF8C0
:101120001CA00593FFF7AEFB00283FD10A237A1BD2
:1011300004EB82020221117160E63F4B1B789B0792
:1011400009D4014608223D48FEF702F9022359E777
:10115000DCF80030FFDEDFF8E4B0B01D5B46204471
:1011600005AA5146FFF7FEFB00284AD1CDF800A0A2
:101170000699334A2E48BBF804A0434600F09EFD72
:1011800040B30E233EE77B1B9B00E118E25C062385
:101190000B74013A0E2366E651682548012200F0DF
:1011A000E3FD0422034688F8002027E60699244A36
:1011B0008B88ABF80630B1F800E01D48CDF800A0F0
:1011C0000123ABF808E0BDF8128000F077FD70B1A4
:1011D0000E23ACE71B4B03EB0A1383F80E80C2E42B
:1011E0000123A8F80230FFF7EDFA034607E7154A96
:1011F00002EB081201215346917398E74FF0000863
:1012000074E50390514658460822FEF7A1F8039B67
:101210000A2B7FF4F7AE1C2303FB05F3E25C013AD3
:1012200053E50F231FE600BF1C2A002070CA0200EE
:101230004422002068CA02006C290020282A0020CD
:1012400064CA0200FC2900200846FFF7EBBB00BF80
:101250002DE9F04F0D894C6885B00646002D00F051
:10126000AB80206810F0030005D091E054F8307096
:10127000BF0740F08D8001308542F7D1002A00F091
:101280008B80B2F800A05288644FDFF8A0813868E4
:10129000D8F87490032B00F1010E03BF306803905F
:1012A0004FF0040B4FF0000BB9F1030FC7F800E04B
:1012B0005FD8DFF87CC1DCF84400C5F10807B8420C
:1012C00057D8D8F8707002970F8849880191029911
:1012D0000097494401F00301C1EBC101890008EB0B
:1012E000010708F80130FA80BDF800203A81039A1E
:1012F000BA6109F101090023BDF80410B9804FF06B
:101300000302C7F80CE087F810B0A7F812A0BD756B
:10131000BA827B81C8F87490DDB1DCF840200244C9
:1013200002F007020CEBC2020CF1380804EBC30117
:1013300003C9013302F1080782E80300424514BFE4
:101340003A4662469D42F1D1DCF844302B44CCF859
:1013500044303EB10023324AC6F800E0736012897F
:10136000B37232812F4A137813F0040442D0002064
:101370000BE02D4B03EB0A1AC2F57F42BAF80A3094
:10138000FD321A44AAF80A20082005B0BDE8F08F03
:10139000032005B0BDE8F08F04EBC505A088083434
:1013A0000244A54292B2F9D1D01C80B240F2FD3481
:1013B000A04205D90920E8E7002A7FF462AF0320A4
:1013C000194C94F800A0BAF1000F07D1678925895C
:1013D0003D440544ADB2B5F5806F1DD3257C3DB9C4
:1013E000678B258B3D440544ADB2B5F5806F09D3BD
:1013F0000720CAE743F0040320461370FFF712FBEF
:101400002046C2E74FF0010A554604EB0514384464
:1014100060810D894C6837E75546F6E78029002042
:10142000702900206C290020FC290020842900203C
:1014300024290020074A1378082B09D010B4591C1E
:10144000054C117044F8230000205DF8044B7047F0
:101450000C207047242A0020042900202DE9F04F99
:10146000AA4E8DB0327800230893079309930A930C
:101470000B9393070DD5A64C04F1200554F8043FB7
:1014800007A803B19847A542F8D100200DB0BDE8E8
:10149000F08F12F00107F8D142F00102327000F033
:1014A000B1FB9C4BDFF88CC219689B4B039701F58D
:1014B000405A0AF1080A1D68019701F58050B846A4
:1014C0000831CDF808A051F8083C944A9342A1F1A4
:1014D000080450D0A1F10C0301F6F47E02E073453C
:1014E00000F0EE8053F8042F0132F8D04FEA0813D1
:1014F0008B4A4FF0030408F10108D4541FFA88F80E
:10150000029B01F58051994200F58050DBD1002FFC
:1015100040F0F9809DF804300B2B09D8DFE803F088
:10152000B206B20608CBBACB08B7B4B7002304930F
:101530007C4A516F032912D87B4B5B6C082B0ED869
:10154000136F0B4403F00303C3EBC3039B00D018DA
:101550000124D45401319DF8103003715167337860
:1015600013F0040491D143F0040320463370FFF7D5
:1015700059FA20468AE751F8043C6C4A934244D019
:1015800001329342A6D1039BA3B1654B4FEA0819E0
:1015900003EB0902DCF800300593614B4FF0020EBB
:1015A00008F1010803F809E0059B53601FFA88F869
:1015B000A2F808E00222CCF80040ACF804200B6846
:1015C00001337BD014464FF6FF7E0A4602E01368D3
:1015D000013313D09388734506D0138823B19368E1
:1015E000AB4201D91D460127538803331C4402EB4B
:1015F0008302A4B29042ACF80440E8D8022C5DD03B
:101600000823019A1A4301927AE7454B4FEA081BD7
:1016100003EB0B0E4FF00009022203F80B90CEF8FB
:101620000440AEF808200B6801331ED00B464FF67D
:10163000FF7A11E09C68AC4201D9254601275C88FD
:101640000334224403EB840392B29842AEF808209C
:101650000BD91C68013408D09C88544502D01C88E2
:10166000002CE7D14FF00109E9E72D4B9B44019B8A
:101670008BF80E9008F1010843F002031FFA88F876
:1016800001933DE70B2001E70223049350E7032376
:1016900004934DE733781E4C43F0020323F001031B
:1016A000337004F1200554F8043F07A803B19847AC
:1016B000A542F8D1E9E60123049339E70423A0E722
:1016C000DCF80030BBB1164A4FEA081302EB030EF8
:1016D000174ACEF80440124CA2F80280022208F108
:1016E0000109E2541FFA89F8AEF80820019B43F083
:1016F0000103019304E70223ACF804300123CCF882
:1017000000400393F2E7044B1D6003E76C290020BF
:10171000002900204422002080290020DEC0ADDE08
:10172000FC2900208429002024290020FE011EF12C
:10173000702900201C2A002060B159B130B583B057
:101740000C460DF106010546FFF79CF820B90A206A
:1017500003B030BD05207047BDF80620074B686810
:1017600003EB021301219A890A449A8120606B6875
:1017700000200C336360A97203B030BDFC29002047
:1017800050B110B582B00DF106010446FFF77AF8AA
:1017900020B90A2002B010BD05207047BDF8062010
:1017A000084B03EB02139A8912B9062002B010BD50
:1017B000A17A0029F9D00021013A9A810846A17244
:1017C000E8E700BFFC2900201D4B1B789B0702D4D3
:1017D00002231846704740B1CB1C9BB240F2FD3249
:1017E000934205D9092318467047052318467047C8
:1017F00070B4144A157895B95689148934441C4438
:10180000A4B2B4F5806F0AD22C4602EB0412334422
:101810005381058041800023184670BC7047147CBA
:1018200054B9568B148B34441C44A4B2B4F5806F65
:1018300002D201252C46E8E70723184670BC704702
:101840006C290020FC290020134B1B789B0702D435
:10185000022318467047D0B10388022B02D9042313
:101860001846704710B40D49428801EB031359899B
:101870008C1A032C0DD4C2F57F42FD320A4400219C
:101880005A810B46016018465DF8044B70470523EA
:10189000DFE70423F7E700BF6C290020FC290020C4
:1018A0000D4B1B789B0701D40220704759B110B42F
:1018B0000C884FF6FF739C4201D04B882BB9042053
:1018C0005DF8044B704705207047022300225DF845
:1018D000044BFFF7BDBC00BF6C2900203AB130B407
:1018E0000C4C2478A30704D4022030BC7047052098
:1018F000704769B10D884FF6FF74A54201D04B883F
:1019000013B9042030BC7047022330BCFFF7A0BCE1
:101910000520EAE76C29002028B10E4A12789307C7
:1019200003D402207047052070470029FBD010B473
:101930000C884FF6FF72944201D04B881BB90420EB
:101940005DF8044B7047032300225DF8044BFFF75A
:101950007FBC00BF6C290020F8B5194A137899079D
:1019600001D40220F8BD4FF6FF7188421BD0154C00
:10197000656F032D19D81449496C082915D8216FB2
:10198000294401F00301C1EBC10189006618052754
:10199000675401350121F0803171656713F004044B
:1019A00005D00020F8BD0420F8BD0820F8BD43F0A4
:1019B000040320461370FFF735F82046F8BD00BF3A
:1019C0006C2900208429002024290020F8B5164A1B
:1019D0001378990701D40220F8BD1448416F0329F8
:1019E00018D8134C646C082C14D8046F114D0C4497
:1019F00004F00304C4EBC4042E780131062700F878
:101A0000247041670EB10121297313F0040403D03F
:101A10000020F8BD0820F8BD43F0040320461370F1
:101A2000FFF700F82046F8BD6C290020842900202B
:101A3000242900207029002010B50C4C82B0ADF88C
:101A400006002078ADF80410810702D4022002B00D
:101A500010BD3AB133B101A90DF10600FEF782FFC6
:101A600002B010BD052002B010BD00BF6C290020DF
:101A700000B50D4B83B0ADF806001878830703D48A
:101A8000022003B05DF804FB51B14AB113460020B7
:101A90000A460DF10601FEF765FF03B05DF804FB91
:101AA000052003B05DF804FB6C29002000B50D4B48
:101AB00083B0ADF806001878830703D4022003B082
:101AC0005DF804FB51B14AB113460DF106000A4618
:101AD0000021FEF747FF03B05DF804FB052003B0CB
:101AE0005DF804FB6C29002020B119B103680B607C
:101AF000002070470520704729DF704728DF7047B6
:101B000070B50C4D696E042911D02B6E0B44032B5C
:101B100088BF043B182202FB035406464B1C204698
:101B200000216B66FDF714FC3460012070BD0020BD
:101B300070BD00BF342A002070B5304C636E84B095
:101B40007BB1266E7500AB1904EBC3031A7A012A28
:101B500009D0022A26D19889FFF7D0FF112818D082
:101B600000BB04B070BDA8199A8ADB8A04EBC000E0
:101B7000D21AC1680069B2F5806F4FEA8303B4BF1F
:101B800092B24FF4806219441844FFF7B5FF112850
:101B9000E6D11B4A137823F0020343F004031370C9
:101BA00004B070BD102268460021FDF7D1FBAB19CF
:101BB00004EBC3031A7A012A17D0022A09D19A89A1
:101BC000DB89ADF80A20D21A0123ADF808208DF880
:101BD00000303544ED00621963595268019268463D
:101BE0009B680921984704B070BD1A699B8A0292CC
:101BF00000218DF80010ADF80C30EAE7342A0020FF
:101C0000302A00202DE9F0434FF010235D696B1C52
:101C100048D0DFF8A48098F800C01CF0010F3ED136
:101C2000234F2448C01B000935D007EB00113B4669
:101C300086461A681AB15A680AB10EF1FF3E10338F
:101C40009942F6D1BEF1000F25D000260022914620
:101C5000F4B23B4606E0596839B10132904203F1D3
:101C600010030ED019680029F5D1597B494588BF6A
:101C7000D4B202F1010288BF8946904203F11003F9
:101C8000F0D124013B1901361A7B5D60B645A5EB06
:101C900002353D51DAD14CF0010C88F800C000202B
:101CA000BDE8F0834FF080535D692D03B1E700BFBD
:101CB0004422002054220020302A00202DE9F04147
:101CC000264D2C78E60782B012D510B1244CA042E4
:101CD00003D2022002B0BDE8F081224CA042F8D22B
:101CE00052B149B142EA0104A40707D00620F1E746
:101CF000012002B0BDE8F0810320EBE70468A142B7
:101D000001D20520E6E7466801EB8304A642F8D33A
:101D10000BB90420DEE7804601A81E4614460F4694
:101D2000FFF7EEFE08B90720D4E701992B78C1F838
:101D30000080019A089848600121D46013F00604DD
:101D400017619682117201D00020C3E743F00203AD
:101D50002B70FFF7F1FE2046BCE700BF302A0020C1
:101D600044220020542200202DE9F041244D2C78FB
:101D7000E40782B010D510B1224CA04203D2022059
:101D800002B0BDE8F081204CA042F8D241B1C1F3CD
:101D90000B043CB10620F3E7012002B0BDE8F0815E
:101DA0000320EDE70468A14201D20520E8E7466878
:101DB00001EB0234A642F8D30AB90420E0E78046DA
:101DC00001A81E4614460F46FFF79AFE08B90720E1
:101DD000D6E701992B78C1F80080019A4E60022065
:101DE000390B148213F006049181107201D0002087
:101DF000C6E703432B70FFF79FFE2046C0E700BFF6
:101E0000302A0020442200205422002020B1034B1D
:101E10005B6E03600020704703207047342A002067
:101E20002DE9F047B44FB54C3B78256E990784B047
:101E300040F18180022800F0DD80032840F0D4804A
:101E4000AF4E33780133DBB2032B337040F2AF80F7
:101E50004FF0000A1022514668464FEA450886F8BE
:101E600000A0FDF775FA08EB050304EBC303E94690
:101E70001A7A012A00F0F080022A09D19A89DB89B6
:101E8000ADF80A20D21A0123ADF808208DF80030F1
:101E90004544ED0062196359526801929B684846B7
:101EA00008219847626E013A6266002A40F00D816F
:101EB000236E3978013321F00201042B3970236637
:101EC00040F08F80002525668C4C2346002A00F0C8
:101ED00088804FEA450808EB050204EBC202117A3C
:101EE000012940D0022975D0102268460021FDF753
:101EF0002FFA08EB050304EBC303E9461A7A012A1B
:101F000000F08B80022A09D19A89DB89ADF80A207A
:101F1000D21A0123ADF808208DF800304544ED00B9
:101F2000621963595268019248469B680921984793
:101F300004B0BDE8F0875A0739D5626E03F0FB03A1
:101F40003B70002A4DD043F002024FEA45083A7038
:101F500008EB050204EBC20208EB0503117A012924
:101F600004EBC303BED1D08A08EB050304EBC30323
:101F70009A8A08EB050304EBC303121AD9681B699C
:101F8000B2F5806F4FEA8000B4BF92B24FF4806226
:101F900001441844FFF7B0FD112820D13B7823F00D
:101FA000020343F004033B7004B0BDE8F08705EB87
:101FB000450304EBC303626E88E7F389B289318A73
:101FC00001339BB201329942F381B2816CD0636ECE
:101FD0003BB133469889FFF791FD1128DED00028E8
:101FE00082D104B0BDE8F08705EB4503626E04EBD7
:101FF000C3036BE74FEA450808EB050304EBC30690
:102000003F4A337A4FF0000A012B82F800A00DD02E
:10201000022BD2D03346626E58E71A699B8A02922D
:1020200000218DF80010ADF80C3077E7F08AB18A06
:102030000B1AB3F5806FB4BF9BB24FF4806308EB0B
:102040000502184480B204EBC2068142F0820BD034
:10205000636E002B88D1C4E71A699B8A8DF800A0B3
:102060000292ADF80C3013E7684610220021FDF70C
:102070006FF9337A012BE94634D0022B09D1F2896A
:10208000B389ADF80A309B1A0122ADF808308DF8FB
:10209000002008EB0503DB00E218E35852680192C8
:1020A00048469B680021FCE6684610225146FDF731
:1020B0004FF9337A012BE946DFD13269B38A8DF8C3
:1020C00000A00292ADF80C30E3E7256E0135042D37
:1020D00025663FF4F7AE4FEA450808EB050304EB2D
:1020E000C303F8E63269B38AADF80C3000218DF8ED
:1020F00000100292CDE700BF302A0020342A0020D1
:102100009C2A002010B40023012401E0202B0AD0D7
:1021100004FA03F2024299B203F10103F6D0084631
:102120005DF8044B70474FF6FF7108465DF8044BAD
:10213000704700BF98B191B130B40238002402E07A
:102140000134202C0AD030F8025F9542F8D10122E8
:1021500033B10B6802FA04F423430B6030BC7047C0
:102160000B6802FA04F423EA04030B60F6E700BFED
:1021700070B49DF80C60C0B1B9B1B2B1023800249E
:1021800002E00134202C10D030F8025F9D42F8D1DB
:10219000012303FA04F401EB820246B9E4430B681D
:1021A000234041F8043B9142F9D170BC70470B6861
:1021B000234341F8043B9142F7D00B68234341F895
:1021C000043B9142F3D1F0E798B110B402380023F8
:1021D00002E00133202B0DD030F8024F9442F8D1A9
:1021E000012202FA03F30B4214BF104600205DF8EF
:1021F000044B70470020FAE7F0B491B100252B465C
:10220000012606FA03F4144205D000EB450431F828
:102210001370A78001350133202BF2D10560F0BC8B
:1022200070470D460560F0BC704700BF0A7B4B68E5
:1022300010B40C68002A0ABF234600220122027152
:1022400003605DF8044B7047054A4FF0A043105CF3
:10225000D3F8043523FA00F0C04300F001007047C2
:102260007CCA0200044B195C4FF0A04201238B4052
:10227000C2F80C35704700BF7CCA0200044B195CE1
:102280004FF0A04201238B40C2F80835704700BFD1
:102290007CCA02004FF0A04310B44FF480204FF4EA
:1022A00000344FF400214FF48012C3F80845C3F8FE
:1022B0000805C3F80815C3F808255DF8044B7047F6
:1022C0004FF0A04310B44FF480204FF400344FF48B
:1022D00000214FF48012C3F80C45C3F80C05C3F875
:1022E0000C15C3F80C255DF8044B7047074B4FF0F5
:1022F000A041185CD1F804350122824022EA030093
:102300001340C1F80805C1F80C3570477CCA0200BB
:1023100030B44FF0A04303224FF400354FF4802433
:102320004FF400204FF48011C3F84427C3F8482726
:10233000C3F84C27C3F85027C3F80855C3F808451D
:10234000C3F80805C3F8081530BC7047054A4FF0BC
:10235000A043105CD3F8103523FA00F0C04300F01E
:102360000100704778CA02000C2809D00E2809D055
:102370000F2809D010280CBF03204FF0FF30704702
:10238000002070470120704702207047014B185C05
:10239000704700BF78CA020010B51A4B1A6882B0A5
:1023A000A2B100221A601B6800934FF08043012203
:1023B000154C0099C3F80823A368627033B10CCBA5
:1023C0000020A2609847A368002BF8D10F4B1A6831
:1023D000AAB100221A601B6801934FF080430222C9
:1023E000094C0199C3F8082323690122A27033B173
:1023F0000CCB0120226198472369002BF8D102B051
:1024000010BD00BF00010040A02A002004010040D0
:1024100058B910B5054CA36833B10CCB0020A260AD
:102420009847A368002BF8D110BD7047A02A002060
:1024300010B582B002A80023144C00F8013DFEF74D
:1024400083F9237853B1E3689DF807000133012233
:10245000E360A270FEF79EF902B010BD0C4A636003
:10246000E3601068A36010F0010023610AD009F056
:10247000D5FB20B94FF080430122C3F81825012372
:102480002370E0E7072100F005F8F0E7A02A00201C
:1024900000E100E0002810B418DB00F1604303F510
:1024A00061434901C9B283F80013C3B240098000F7
:1024B00000F1604000F5614003F01F0201239340EA
:1024C000C0F8803103605DF8044B7047C3B2044A22
:1024D00003F00F0449012244C9B21176E6E700BFB8
:1024E000FCEC00E030B51D4C94F8545083B015B1AD
:1024F000082003B030BD4FF0FF33FF220721062034
:1025000023636363A363E36323646364A364E36497
:1025100023606360A360E36023616361A361E3619F
:10252000236284F850306362A36284F85230E3621D
:1025300084F8533084F85120FFF7ACFF084B094A68
:102540001D601B68019301984FF00043012128464C
:1025500084F85410C2F8043303B030BDB42A00200C
:102560007C61004000600040034B93F85400003051
:1025700018BF0120704700BFB42A0020F0B55E4CA0
:10258000251895F93030002B01DB0820F0BD91F8BB
:1025900003E0BEF1000F50D02368013300F0A680A5
:1025A0000826012554F8253001334CD06B1C54F813
:1025B0002370013748D0AB1CB3423CD254F823708F
:1025C000013741D0EB1CB34235D254F823700137A8
:1025D0003AD02B1DB3422ED254F82370013733D09A
:1025E0006B1DB34227D254F8237001372CD0AB1D9A
:1025F000B34220D254F82370013725D0EB1DB342EB
:1026000019D254F8237001371ED005F10803B342E4
:1026100011D254F82370013716D005F10903B342E3
:1026200009D254F8237001370ED00A35B54202D2D0
:10263000E36A013358D00420F0BD236A01332DD062
:102640000C260925AEE72B4626185DB244F8232058
:1026500086F83050BEF1000F26D08B78A3B94A78A7
:102660004FF0A04600F5E073920046F82320CB78A7
:10267000F3B9083D2C44097894F8502042EA8112BD
:1026800084F850201846F0BD830003F1A043D3F82E
:10269000002722F00202C3F80027E8E7082685F8A1
:1026A0003060334622623546234483F84800D4E73D
:1026B000AB0003F1804303F5C0430978D3F810451C
:1026C00024F4473424F44074C3F81045020209048A
:1026D000D3F8100501F4403102F4F8520A430243E2
:1026E000C3F810250020F0BD0B23ADE7002385F8CB
:1026F000303022601D46B0E7B42A0020F0B42E4DE1
:102700002E1882B096F93030072B1CDD2B4493F83D
:1027100048309B09032B41D0012B14BF4FF44031AB
:102720004FF40031800000F1A040D0F8002722F4DF
:102730004032C0F80027D0F800370B43C0F800370C
:1027400002B0F0BC7047DAB2072AF9D8980000F15D
:10275000804000F5C04003F140029200D0F81045DF
:1027600092B202F18042002744F0010402F5C04217
:10277000C0F810450197019817600029E0D096F93C
:10278000302055F82220002ADAD001220B4902FA23
:1027900003F3C1F8043302B0F0BC70474FF0A0431C
:1027A000D3F81035C34013F0010F0CBF4FF40031C4
:1027B0004FF44031B6E700BFB42A0020006000406B
:1027C0004FF0A043D3F8103523FA00F000F00100D9
:1027D000704700BF2DE9F04F87B00023CC4A01932A
:1027E0001168012900F00A821E46CA4B1A68012AA4
:1027F00000F0F681C84B1A68012A00F0E381C74B4C
:102800001A68012A00F0D081C54B1A68012A00F02D
:10281000BD81C44B1A68012A00F0AA81C24B1A6814
:10282000012A00F09781C14B1A68012A00F08481C7
:10283000BF4B1A68012A00F05E8116F0FF0F1AD014
:10284000BC4F01250024A30003F180432E4203F571
:10285000C0434FEA45050BD0D3F8100557F82420A4
:10286000D3F81015C0F30420C1F3014102B1904721
:102870000134082CE7D1002E02DB07B0BDE8F08F51
:1028800000224FF0FF33AB4C02920393012502AEBE
:1028900094F950104F1C2DD0C9B221F0C00006ABE6
:1028A0004FEAD00E03EB0E0701F0070317F80C2CCC
:1028B00005FA03F31A421DD02218890992F9302033
:1028C00054F82220002A00F0F080032900F0F08064
:1028D0004FEA800E0EF1A04E17F814CCDEF8007708
:1028E0001CEA0303C7F3014940F0B880B9F1030FB4
:1028F00000F0D7814FF0030A4FF002094FF00108B2
:10290000002794F95110481C2DD0C9B221F0C00005
:1029100006AB4FEAD00C03EB0C0E01F007031EF8D8
:102920000C2C05FA03F31A421DD02218890992F9DA
:10293000302054F82220002A00F0CA80032900F039
:10294000CA804FEA800C0CF1A04C1EF814BCDCF8D5
:1029500000E71BEA030FCEF3014E40F09080BEF17A
:10296000030F00F08A8194F952104A1C2CD0C9B28E
:1029700021F0C00006AB4FEAD00C03EB0C0E01F0C7
:1029800007031EF80C2C05FA03F31A421CD0221878
:10299000890992F9302054F82220002A00F08F8013
:1029A000032900F08E804FEA800C0CF1A04C1EF839
:1029B00014ACDCF800E71AEA030FCEF3014E6AD13B
:1029C000BEF1030F00F0468194F953104B1C2CD03C
:1029D000C9B221F0C00006AB4FEAD00E03EB0E02E5
:1029E00001F0070312F80CCC05FA03F31CEA030FFD
:1029F0001BD004EB000C89099CF930C054F82C90D2
:102A0000B9F1000F6ED003296ED04FEA800E0EF19F
:102A1000A04E12F814CCDEF800271CEA030FC2F314
:102A2000014211D1032A00F0F580002F3FF425AFB9
:102A30004FF0A043019AD3F810359A423FF41DAFEE
:102A4000029A0193039223E7022AEED1032900F0B0
:102A50004681B9F1000FE8D0C847E6E7B9F1020FA7
:102A60007FF448AF032900F043814FF0030A4FF091
:102A700001080027002A3FF444AF904741E7BEF128
:102A8000020F7FF470AF032900F02C81002A3FF47D
:102A90006AAF904767E7BEF1020F95D1032900F0B6
:102AA0002481002A90D090478EE703297FF422AF3B
:102AB00016F80EC04CEA030C06F80EC008E703290E
:102AC00082D116F80CA04AEA030A06F80CA06AE7BD
:102AD00003297FF448AF16F80CB04BEA030B06F855
:102AE0000CB02EE70329A0D116F80EC04CEA030C57
:102AF00006F80EC089E700221A601B6805934FF0A4
:102B0000A043059AD3F81035019346F0004694E6A9
:102B10000061004004610040086100400C61004019
:102B20001061004014610040186100401C610040C9
:102B30007C610040B42A00206F4AD2F804231206B8
:102B40007FF576AE00221A601B680493049B46F062
:102B500080066DE6684AD2F8042351067FF563AE1D
:102B600000221A601B680493049B46F040065AE654
:102B7000614AD2F8042390067FF550AE00221A6015
:102B80001B680493049B46F0200647E65A4AD2F895
:102B90000423D4067FF53DAE00221A601B6804931F
:102BA000049B46F0100634E6534AD2F80423150776
:102BB0007FF52AAE00221A601B680493049B46F03E
:102BC000080621E64C4AD2F8042357077FF517AED2
:102BD00000221A601B680493049B46F004060EE66C
:102BE000454AD2F8042392077FF504AE00221A600A
:102BF0001B680493049B46F00206FBE53E49D1F8AE
:102C0000046316F001063FF4F0AD136013680493FB
:102C1000049BEAE503297FF41CAF4FF40032DEF891
:102C2000003723F44033CEF80037DEF80037134383
:102C3000CEF80037B9F1000F01D047460CE74FF04E
:102C4000A043019AD3F8103593427FF4F9AE07B050
:102C5000BDE8F08F03297FF424AF4FF40037DCF890
:102C6000003723F44033CCF80037DCF800373B431F
:102C7000CCF800374746C84613E703297FF406AF70
:102C80004FF40037DCF8003723F44033CCF800373A
:102C9000DCF800373B43CCF800374746C846D146FE
:102CA000F4E6032906D0CA461F464FF002094FF04A
:102CB0000108DFE64FF40037DEF8003723F4403335
:102CC000CEF80037DEF800373B43CEF800374FF040
:102CD000040A4FF003094FF002080127CAE64FF437
:102CE00040329CE74FF44037CCE74FF44037B6E72B
:102CF0004FF44037E0E700BF00600040F0B50479D2
:102D0000714E6401331987B0DD7E15B1082007B01C
:102D1000F0BD4D7F1D770D686B1C0BD04FF0A047A9
:102D20000123AB40C7F808350B6803F5E0730325B2
:102D300047F823504B685F1C06D003F5E0734FF053
:102D4000A045002745F82370037906EB43131B7F4A
:102D5000002B4CD003688D69C3F824550F7D4B7D43
:102D600005683B43C5F86C3503680F684D68C3F8C8
:102D70000C75C3F814550B7D012B00F09A803319A4
:102D800005465A600B693351EAB10379097F02683D
:102D900006EB43131B7F002B65D1C2F81C31D2F820
:102DA0001C712A680097009FC2F84431D2F8442170
:102DB0002B6846480192019AC3F80403286840F33F
:102DC0000730FFF767FB2B792A6806EB43131B7F5D
:102DD000002B44D00823C2F80035344400200123DE
:102DE000E376E0752076A075A07607B0F0BD0568A3
:102DF0008F69C5F8247591F814E04D7D076845EAA0
:102E00000E05C7F86C550568D1F800E04F68C5F8A5
:102E10001475C5F80CE50D7D012DB0D18D686F1CC2
:102E200005D005F5E0754FF0A04747F82530CB6891
:102E30005D1C0DD001254FF0A04705FA03F3C7F83C
:102E40000835CB6803F5E073032547F82350CB68BA
:102E500005688F68C5F80835C5F810758FE7042335
:102E6000C2F80035B9E70023C2F81031D2F810716A
:102E70002A680297029FC2F82031D2F820712A688E
:102E80000397039FC2F82431D2F824712A6804976B
:102E9000049FC2F84431D2F844212B6805920C48B3
:102EA000059AC3F80403286840F30730FFF7F2FAE5
:102EB00089E78B685D1CBAD003F5E0734FF0A0453D
:102EC000002745F82370B2E70C2B00208000020099
:102ED00010030200F0B502793C4B046852019918C6
:102EE000097F00296CD00021C4F8001599184968A1
:102EF000B1B1017903EB4111097F002963D1016868
:102F0000334CC1F808430168324E090B4CB26409D6
:102F1000203401F01F01012505FA01F146F82410C3
:102F20000179076803EB4111D7F80C65097FD7F8E1
:102F300014554FF0FF3EA9B3D7F80815D7F8104540
:102F4000C7F80CE5C7F814E50068C0F808E5C0F854
:102F500010E5771C06D006F5E0764FF0A04002277A
:102F600040F826706E1C06D005F5E0754FF0A040C5
:102F7000022640F82560651C06D004F5E0744FF089
:102F8000A040022540F82450481C06D001F5E0710D
:102F90004FF0A040022440F8214013440022DA768A
:102FA0005A60F0BDD7F80815D7F81045C7F814E5F2
:102FB000C7F80CE50068C0F808E5C0F810E5C8E7F8
:102FC000C4F8001592E70168034C9AE70C2B002027
:102FD0008402020000E100E010030200F0B5037972
:102FE000524C5B01E51887B02D7F3DB101F0604583
:102FF000B5F1005F02D0102007B0F0BD23449E7DE4
:1030000016B1112007B0F0BD9A7599609E820579BE
:103010006D016219137F13BB0168C1F81C31D1F82F
:103020001C61016804960126049F8E600168D2F835
:1030300008E0C1F81C31D1F81C310593059B968A34
:10304000938A5768B6B201331EF806609BB293822A
:10305000C1F81C65002F2FD0002007B0F0BD036819
:103060009168C3F82061D3F8207103680197019F2C
:10307000C3F85861D3F8586103680296967D029FA1
:10308000C3F84415C3F84865036801219960536883
:10309000002BE1D1036801E0002945D1D3F82021BC
:1030A000D3F85811002AF7D0002914BF0F200020B0
:1030B0002C440023A3759FE7967D938A9BB29E4282
:1030C00002F1140122D9016804E0938A9BB2B3F59E
:1030D000807F03D0D1F81C31002BF6D0938A9BB2AD
:1030E000B3F5807FE9D0C1F81C71D1F81C3103938E
:1030F000039BB2F814C0938A1FFA8CFC01331EF8AC
:103100000CC09BB29382C1F81CC5D6E70B889BB25A
:10311000B3F5807F08D00268D2F81C31002BFBD0B9
:103120000123D3600020C3E70F20C1E70C2B002050
:103130000279044B03EB4213987D003018BF012045
:10314000704700BF0C2B002070B5A54C237F8EB0BC
:10315000002B73D1A34AD2F80413890546D4A14B9E
:10316000D3F80423520704D5D3F80821002A40F0ED
:10317000C9809C4BD3F81C21BAB1A28AA17D92B21E
:103180008A424FF00002C3F81C2180F0A880D3F8D7
:103190001C210692069AA18AA28AA06889B20132ED
:1031A000415C92B2A282C3F81C158E4BD3F8442125
:1031B000D2B10022C3F84421D3F84411A27E049175
:1031C0000499002A40F08880E37D6BB10023617E82
:1031D000E268E37501238DF830108DF828300B92EA
:1031E00094E80A000AA898470EB070BDD2F82411DE
:1031F0000029B4D0C2F82431D2F82411A37E07915B
:103200004FF401710798C2F808130BB901235360FA
:10321000744A02238DF82830D2F88034C2F8803402
:10322000E07DE2680D9300238DF83000E37523768E
:1032300021680B9263680AA898479AE7694BD3F80C
:103240002421002A40F09280D3F8101161B1C3F814
:103250001021D3F8101103910399D3F83C15E07DA8
:10326000C9B2884200F0A4805E4BD3F84421B2B1C9
:103270000022C3F84421D3F84401E17D0190019874
:1032800069B1D3F83C35E1688DF8303001230B91FA
:103290008DF82830E27594E80A000AA89847514B47
:1032A000D3F82021002A9FD00022C3F82021D3F890
:1032B0002001A17D00900098002995D0D3F84C15ED
:1032C000A3688DF830100B938DF82820A27594E830
:1032D0000A000AA8984787E701221A6074E7D3F822
:1032E0001C310593059B00293FF45FAFA3688DF85F
:1032F00030100B938DF82820A27594E80A000AA8D4
:10330000984752E7E27D002A6ED00022C3F80821D8
:10331000D3F808210892089AE168627ED3F818353C
:103320008B54637EE27D0133DBB26376637E93422E
:103330007FF41FAF237E002B6CD1A37E13B9294BE2
:1033400001225A60274AE06863684FF40171C2F8AD
:103350000813627E8DF83020002501220B90216831
:10336000E5758DF828200AA8984702E70022C3F8DF
:103370002421D3F82411029102218DF828100299FA
:10338000D3F88014C3F880140D91D3F83C15E3688A
:10339000E27522768DF830100B93216863680AA8D5
:1033A0009847104BD3F84421002A3FF478AF5FE7E9
:1033B000217E11B3D3F80062E568E17526F020069E
:1033C000C3F8006226698DF8300001238DF828309B
:1033D000227621680B95E66063680AA8984743E760
:1033E0000C2B002000200040C3F80821D3F808115E
:1033F00009910999D3F8183598E7E268E175012336
:103400008DF830008DF828300B9294E80A000AA855
:10341000984729E7607EE5682169E375012200236A
:103420008DF83000E160237663760B958DF82820C7
:1034300094E80A000AA898479BE600BF0220FEF71E
:1034400055BF00BF2DE9F0470D460646FEF78CFF3D
:1034500003281ED8012D04461FD00ED3022D1AD1E9
:103460001C4B00EB40041C44657895B11A4B1B685B
:103470007BB12846BDE8F04718471848FDF728F902
:10348000144B174A04EB44010B44125D9D78AA4289
:10349000EBD0BDE8F087BDE8F0870E4F4FEA40085B
:1034A00008EB0003FA18FD5C53782BB9A04447449D
:1034B0000B4BBA781A55D8E7DFF8289007484A46E8
:1034C0004FF40041FDF7AEF80028EFD189F8006015
:1034D000ECE700BF702B0020A42B0020502B002015
:1034E000AC2B00202C2B002010B50078FEF73CFF01
:1034F00003280BD8064B00EB40001844407828B155
:10350000044B1B6813B1BDE81040184710BD00BF45
:10351000702B0020A42B0020B34B1B68DB0700D4CA
:10352000704770B5B14EB24D33782C78FBB9172C7B
:103530001CD8DFE814F0F1001401140163007600D8
:10354000830096005D0039002C0039002C00A30098
:10355000A800A800A800A800A800CE00DE00010175
:10356000460018001800FEF7ABFE2C7070BDA14B92
:103570001B7800203070002B00F00581FEF77EFEE6
:103580000120FEF77BFE0320FEF778FECFE7012344
:1035900018463370FEF7AAFE00224FF48041964889
:1035A000BDE87040FDF73EB8012318463370FEF7C2
:1035B0009DFE002240F6CD418F48BDE87040FDF7EA
:1035C00031B88C4B1B78002B00F0FE800020FEF7FA
:1035D00055FE0120FEF752FE0320FEF74FFE0020AD
:1035E000FEF740FE0120FEF73DFE15232B7070BD57
:1035F0000020FEF737FE07232B7070BD0020FEF77A
:1036000023FE002800F0D3800020FEF737FE46F2AC
:10361000666103232B7000227748BDE87040FDF7F8
:1036200001B80020FEF710FE002800F0C580002041
:10363000FEF724FE4FF400310423EBE70020FEF7F1
:1036400003FE002800F0BD800020FEF717FE0523D2
:103650002B70002241F69A116748BDE87040FCF7D4
:10366000E1BF0020FEF742FE06232B70002240F649
:10367000CD416148BDE87040FCF7D4BFFEF720FEA5
:103680000C232B7070BD5D48FDF722F8D4F11104B6
:1036900005467BD0002879D1012C13D0C82303FB29
:1036A00004F44FF4FA704FF400430021C3FB04010B
:1036B0004FF47A72002308F057FB2A4601464F4820
:1036C000FCF7B0FF0220FEF7CDFD4A4B01221A7035
:1036D00070BD484B1B78002B79D00020FEF7CEFD43
:1036E0000120FEF7CBFD0320FEF7C8FD12232B704F
:1036F00070BD404B1B78002B6FD00020FEF7BEFD45
:103700000120FEF7BBFD0320FEF7B8FD0020FEF709
:10371000A9FD13232B7070BD364B1B78002B59D09D
:103720000020FEF7ABFD0120FEF7A8FD0320FEF709
:10373000A5FD00232B7070BD2E4B1B78002B4FD0A6
:103740000020FEF79BFD0120FEF798FD0320FEF709
:1037500095FD0120FEF786FD14232B7070BD00201F
:10376000FEF772FDC8B10020FEF788FD022C4EF274
:10377000666118BF4FF400312C7000221E48BDE86E
:103780007040FCF74FBFFEF785FDD0E60220FEF744
:1037900075FD184B00221A7070BDFEF763FD43F2F1
:1037A000333141F69A13022C08BF1946E4E7FEF7BD
:1037B00059FD41F69A112CE7FEF754FD43F23331DF
:1037C0003AE7FEF74FFD42E7FEF764FD07E7FEF735
:1037D00061FD8BE7FEF75EFDABE7FEF75BFD95E76E
:1037E000FEF758FDB5E700BF7C2B0020802B0020A2
:1037F000A82B00202D2B0020842B0020302B002014
:10380000FEF7A4BD38B5C44B1C6814F0010401D107
:10381000204638BDC14C23780546E3B9172D00F288
:103820007881DFE815F00B013101310169007D007D
:103830009100A5005B003500280035002800B3008A
:10384000BA00BA00BA00BA00BA00E300F6001C01E0
:10385000420063006300B24B1B7800202070002BF5
:1038600000F02781FEF70AFD0120FEF707FD032087
:10387000FEF704FDD2E7012318462370FEF736FD5C
:1038800000224FF48041A748BDE83840FCF7CABE8B
:10389000012318462370FEF729FD002240F6CD4192
:1038A000A048BDE83840FCF7BDBE9D4B1B78002BFF
:1038B00000F020810020FEF7E1FC0120FEF7DEFC95
:1038C0000320FEF7DBFC0020FEF7CCFC0120FEF716
:1038D000C9FC954B15221A70002499E70020FEF7C9
:1038E000C1FC914B07221A70002491E7FEF7E8FC17
:1038F0008D4B00241D708BE70020FEF7A5FC0028EF
:1039000000F0E1800020FEF7B9FC46F26661864BCC
:10391000844803241C700022BDE83840FCF782BEB6
:103920000020FEF791FC002800F0DC800020FEF76C
:10393000A5FC4FF400317C4B7A4804241C70002213
:10394000BDE83840FCF76EBE0020FEF77DFC002885
:1039500000F0CD800020FEF791FC734B71480524E8
:103960001C70002241F69A11BDE83840FCF75ABE9F
:103970000020FEF7BBFC6C4B6A4806241C7000223A
:1039800040F6CD41BDE83840FCF74CBEFEF798FC50
:10399000654B0C221A7000243AE76448FCF798FE45
:1039A0000446D5F1110000F08780002C40F084809F
:1039B000012814D0C82505FB00F54FF400434FF44F
:1039C000FA700021C3FB05014FF47A72002308F05E
:1039D000CBF9224601465548FCF724FE0446022056
:1039E000FEF740FC4E4B01221A7011E74C4B1B783E
:1039F000002B00F082800020FEF740FC0120FEF743
:103A00003DFC0320FEF73AFC474B12221A700024BB
:103A1000FEE6434B1B78002B75D00020FEF72EFCF2
:103A20000120FEF72BFC0320FEF728FC0020FEF708
:103A300019FC3D4B13221A700024E9E6384B1B7821
:103A4000002B5DD00020FEF719FC0120FEF716FCCC
:103A50000320FEF713FC344B00241C70D8E6304BD7
:103A60001B78002B52D00020FEF708FC0120FEF747
:103A700005FC0320FEF702FC0120FEF7F3FB2A4BB6
:103A800014221A700024C3E60020FEF7DDFBF8B113
:103A90000020FEF7F3FB022D4EF2666118BF4FF4D3
:103AA0000031214B1F481D700022BDE83840FCF753
:103AB000B9BDFEF7EFFBB1E60220FEF7DFFB184BC6
:103AC00000221A70A4E6FEF7CDFB41F69A111EE71C
:103AD000FEF7C8FB43F2333141F69A13022D08BFBB
:103AE0001946DEE7FEF7BEFB43F2333123E7FEF76C
:103AF000B9FB32E7FEF7CEFBE5E6FEF7CBFB83E74B
:103B0000FEF7C8FBA7E7FEF7C5FB8FE7FEF7C2FB92
:103B1000B2E700247CE600BF7C2B0020802B002035
:103B20002D2B0020842B0020A82B0020302B0020E0
:103B3000F0B5204A204B1060044610F0020083B01C
:103B4000196013D01D4B1E480E210F27102611257A
:103B5000197040F266620421DF709E715D72FBF79E
:103B600091FFA0B1E3071DD403B0F0BDE20719D463
:103B7000144A15480021FCF743FD0028F4D1134AEC
:103B80001348012103B0BDE8F040FCF739BDFBF755
:103B9000D3FF0028E6D101460E4A0F48FCF730FD5E
:103BA000E10703D50190FEF7B3FB01980028DFD0B1
:103BB00003B0F0BD7C2B0020A42B0020702B002034
:103BC00080CA020019350200A8CA02003D34020072
:103BD000A0CA0200E9340200A4CA0200032801D9E5
:103BE00007207047012A12D0012917D008D30229D3
:103BF000F6D10D4B00EB4000034400205A70704793
:103C0000094B00EB4000034400209A7070470129E3
:103C100001D00022E8E700F10E02D2B200EB40032F
:103C200001490020CA547047702B002008B5FEF7E8
:103C3000ADFB800000F1A0430020D3F8002722F460
:103C40004032C3F80027D3F8002742F44032C3F8CB
:103C5000002708BD08B50020FFF7E8FF10B10628CF
:103C600000D008BD0120FFF7E1FF0028F9D00628A9
:103C700008BF002008BD00BF10B50388102B08D076
:103C8000112B05D1264B18680138186038B110BDCA
:103C900010BD234C216881B10131216010BD01228A
:103CA0000221FFF79BFF48B3072827D01D4B1B6855
:103CB000002BECD0BDE81040184701220846FFF762
:103CC0008DFF48B1072807D0164B1B6803B19847F2
:103CD00021680131216010BD072202210120FFF778
:103CE0007DFF08B10728EFD1042202210020FFF751
:103CF00075FF0028ECD00728E6D1E9E7072202216A
:103D00000120FFF76BFF08B10728CFD1002108463B
:103D10000A22FFF763FF0028B9D00728C6D110BDDB
:103D2000B42B0020B02B0020194B10B5186031B116
:103D300001200C46FFF764FD30B102232370154BC0
:103D4000186848B1002010BDFFF75AFDE8B9114BC3
:103D5000207018680028F5D101220221FFF73EFFEC
:103D600008B10728EFD1072202210120FFF736FF13
:103D700008B10728E7D1002108460A22FFF72EFFE5
:103D80000028DFD00728DED1DCE70B232370D6E73D
:103D9000B02B0020B42B002031DF704732DF70479A
:103DA00035DF704736DF70473EDF704775DF70479D
:103DB00076DF704777DF704778DF70477ADF7047CC
:103DC0007CDF7047A8DF704769DF704766DF7047A8
:103DD0000B78052B06D0062B03D1044B00221A705A
:103DE00070477047014B01221A7070477C2E0020EB
:103DF00008B5074B18884FF6FF73984203D000218F
:103E0000FFF7D4FF00B908BDBDE80840FBF7AABE24
:103E100030200020FBF7A6BE10B50446FEF700F8E0
:103E20002046BDE8104001F06BBC00BF70B50446F1
:103E300084B001F023FE204605F030F82046FFF75D
:103E40001BFF2388112B4ED022D9512B34D0562B57
:103E500015D03B2B13D0204601F0F2FB204601F099
:103E6000B1FD2146364806F043FF2146354806F0AD
:103E700009FC2146344803F0B1F804B070BD1321A9
:103E8000A088FFF795FF0028E5D0FBF76BFEE2E77F
:103E9000012B46D0102BDED10720FFF7B3FC08B171
:103EA000FBF760FE294BA2881A804FF4F011002224
:103EB0002748FCF7B7FBCEE7A379002BCBD0A27B3A
:103EC000043A022AC7D8022B18BF01234FF4C1724B
:103ED0006946A0888DF80030ADF80420FFF772FF26
:103EE0000028B8D0D1E70020FFF78CFC20BB194D8B
:103EF000164A2B784FF6FF711180002BABD0164E6F
:103F00001648316805F054F898B93168134805F03F
:103F100071F8062802D008B1FBF724FE00232B70AD
:103F200099E70A4B00211888FFF750FF002892D02C
:103F3000ABE7FBF717FEE8E7FBF714FED7E700BF98
:103F4000042D0020B82C0020E82C00203020002078
:103F5000802E00207D2E0020A02E0020A42E0020E8
:103F6000F8B54FF6FF7110221E4D1F48FBF7F0F910
:103F700008244FF6FF702C6005F046F84FF6FF77E7
:103F80000021B84229600FD00346174E01E0013CE2
:103F90000AD04A1C26F8113018462A6005F034F879
:103FA000B84203462968F2D10F4805F001F890B9EC
:103FB00029680D4805F01EF8062800D070B90B4B93
:103FC000002203201A7001F01BFB00B9F8BDBDE808
:103FD000F840FBF7C7BDFBF7C5FDE9E7FBF7C2FDFE
:103FE000EDE700BFA02E0020A42E00207D2E002093
:103FF00030B50378023B83B00C2B19D8DFE803F00F
:10400000071836211A182A181A2E1A183200037A9D
:104010001B4982880A80012B0AD11A4801680729A6
:1040200006D8194D194C25F8112001310160237073
:1040300003B030BD80680028FAD0FBF793FD03B0D1
:1040400030BDFDF7C3FC0E280346F1D033F0080362
:10405000EED0F2E700690028EAD0EEE7FFF780FF34
:1040600003B030BD04F09CFF03B030BD02A90023B3
:1040700001F8043D408804F091FF03B030BD00BF5B
:104080007E2E0020A02E0020A42E00207D2E0020B9
:10409000FBF768BDFBF766BD10B5B0B008281AD8AD
:1040A000DFE800F0052F19353B4147501B00002089
:1040B000FFF7A8FB08B1FBF755FD0020FFF7A2FBB7
:1040C00000285AD1FFF7C6FD002853D1FFF766FE3E
:1040D00008B1FBF747FD30B010BD2C4B18884FF6E8
:1040E000FF739842F7D010A904F098FF0528F2D08A
:1040F000002848D10DF1510001F032FB0028EAD030
:10410000E7E70520FFF77EFB0028E4D0E1E7022087
:10411000FFF778FB0028DED0DBE70420FFF772FB17
:104120000028D8D0D5E70320FFF76CFB0028D2D0B9
:10413000CFE70320FFF766FB10BB01F03DFB002833
:10414000C9D0C6E730AB082443F8BC4D10AA0DEB2C
:1041500004006946009404F035FF40B910AA02A893
:104160009DE80A0001F010FB0028B4D0B1E7FBF78E
:10417000F9FCF3E7FBF7F6FCA8E7FBF7F3FCA1E794
:10418000FBF7F0FCD9E7FBF7EDFCB3E77E2E002050
:1041900000B5043883B0152829D8DFE800F02B28B3
:1041A00028342828402828284E5E6C7B2828282878
:1041B0000B0B0B0B414B1A884FF6FF739A4216D02C
:1041C0003F4B1B7800228DF8042083B901AB0122FC
:1041D00002213C4807F074FC30F0080207D0132895
:1041E00005D043F20142904201D0FBF7BBFC03B083
:1041F0005DF804FB314B13211888FFF7D9FD30F02F
:104200000803F4D0F1E72D4B1A884FF6FF739A425A
:10421000EDD101F0D1FA30F00803E8D0E5E7002055
:10422000FFF7F0FA002846D1FFF714FD00283FD130
:10423000FFF7B4FD0028DAD0D7E7204B1A884FF6F5
:10424000FF739A42D3D01E4B1B7804228DF80420B2
:10425000002BCCD10DEB0203B9E7184B1A884FF6AF
:10426000FF739A42C3D0164B1B7820228DF804208E
:10427000002BBCD1AAE7114B1A884FF6FF739A4264
:10428000B5D00F4B1B7801228DF80420002BAED146
:1042900001AB9DE7094B1A884FF6FF739A42A6D0EF
:1042A000074B1B7810228DF80420002B9FD18DE73F
:1042B000FBF758FCBCE7FBF755FCB5E730200020C6
:1042C0007C2E0020042D002080B500209EB0FBF73E
:1042D00093FA08B1FBF746FCFCF7D0F808B1FBF7FE
:1042E00041FC924A92480021FCF78AF908B1FBF799
:1042F00039FC90490220FFF71BFC002104461622DE
:104300000846FFF76BFC172200210120FFF766FC2F
:10431000182200210220FFF761FC1922002103204E
:10432000FFF75CFC14B12046FBF71CFC0CA9002035
:10433000FFF7FAFC08B1FBF715FC7F4A7F4B1468C6
:104340007F499DF830701EA8502240F86C4D07F050
:104350006BFC08B1FBF706FC1EAE002346F8683D77
:10436000304607F0D7FC08B1FBF7FCFB0C2200211C
:104370000CA8FAF7EDFF0023049A8DF830300CA951
:104380000120FFF721FD08B1FBF7ECFB0C22002117
:104390000CA8FAF7DDFF012100238DF83010049AF4
:1043A0008DF831300CA940208DF83230FFF70CFD2C
:1043B00008B1FBF7D7FB304607F0B6FC08B1FBF7B6
:1043C000D1FB604807F07AFC08B1FBF7CBFB5E48F5
:1043D00007F07EFC08B1FBF7C5FB5C4A0A21082008
:1043E000FBF7E8FB08B1FBF7BDFB9DF81030584820
:1043F000012262F3030362F307138DF8103007F014
:10440000A9FE534982B23046FFF7DAFC08B1FBF748
:10441000A9FB40F2C230FFF7CFFC08B1FBF7A2FBCB
:10442000082200210CA8FAF793FF4A4A4A4B0C9243
:104430000CA80D93FFF7C2FC08B1FBF793FB6FF0DC
:104440001300FFF7B7FC08B1FBF78CFB00214348D2
:1044500002F0A8FD08B1FBF785FB3C2200210CA867
:10446000FAF776FF0222052001243D4B8DF830201B
:10447000002120228DF8330030468DF83240ADF80F
:10448000404011930025FAF763FF8DF810408DF836
:1044900011408DF813408DF8144000240020314B5A
:1044A0000093CDE9064528241E25CDE9084501469F
:1044B0008DF812004FF44864B4252B4B32460CA8FB
:1044C000CDE90A4500F0DAFF08B1FBF74BFB41F6F6
:1044D00015104EF6EE634022022401250021ADF8AE
:1044E00012000CA8ADF814308DF81040ADF816503D
:1044F000FAF72EFF0CA81D4901F0DEFB9DF86C3089
:104500009DF86D201A9665F3030302F0F00264F340
:1045100007136FF307120CA88DF86C308DF86D201F
:1045200006F040F920B3FBF71DFB21E0F13D02004E
:10453000B0CA020091410200ACCA020059BD02009B
:10454000682C00202D3E0200193E0200B82B0020EE
:10455000B4CA0200060064001E00D007E82C002048
:104560002C2000209140020099400200C4CA0200A1
:10457000182200213046FAF7EBFE9DF814309DF822
:1045800016809DF81E209DF824109DF825009DF8AA
:1045900015909DF81CC09DF81DE00124022564F3D0
:1045A000030365F307138DF814309DF826308DF85A
:1045B000124064F3030864F3030264F3030164F339
:1045C000030064F3030964F3030C64F3030E65F35F
:1045D000071865F3071265F3071165F3071064F315
:1045E000030365F3071C65F3071E65F3071365F303
:1045F00007198DF816808DF81E204FF00308482209
:104600008DF824108DF8250000210CA88DF813409A
:104610008DF81B40ADF820408DF823408DF81590A3
:104620008DF81CC08DF81DE08DF82630ADF8108097
:10463000ADF818808DF822808DF81A50FAF788FEB0
:104640009DF870309DF85CC09DF864E09DF87100A5
:104650009DF872109DF86C208DF83A8064F3030386
:104660008DF863800F969DF85D809DF86560DFF89A
:1046700000928DF8394064F3030C64F3030E64F385
:10468000030064F3030165F3071364F3030265F3A6
:10469000071C65F3071E65F3071065F307118DF816
:1046A000703008F0F008002306F0F00665F30712FA
:1046B0008DF85CC08DF864E063F307168DF8710027
:1046C0008DF872106448DFF8ACC18DF8656040F277
:1046D000011163F307184FF0880E1490ADF86010C5
:1046E0008DF85D808DF838308DF8403011938DF85D
:1046F000483013938DF862308DF866301A93CDF8F8
:104700003090CDF834C0ADF854E08DF86C209DF8B1
:104710006D109DF86F209DF86E60504864F30301A2
:1047200064F3030206F0F0060C4663F3071665F324
:10473000071465F307120CA98DF86E608DF86D40B3
:104740008DF86F2006F096FE08B1FBF70BFA444B8C
:10475000444819460122512564241D605C609A601A
:104760001A73FDF763FD1C2200210CA8FAF7F0FD77
:104770004FF4203500234FF4702403213A4A0C9360
:104780000CA8ADF83E308DF8403011930D950E9485
:104790008DF83C10129201F0DBF808B1FBF7E2F95A
:1047A00004F08EFB08B1FBF7DDF9052200210CA80F
:1047B000FAF7CEFD9DF830309DF833109DF8342087
:1047C00043F00103032003F0F10360F306136FF3DA
:1047D000C71341F0030142F00302072510240CA87F
:1047E0008DF830308DF833108DF834208DF831503D
:1047F0008DF8324004F0C8FB08B1FBF7B3F91B4851
:1048000004F0A6FB08B1FBF7ADF90120FFF7C4FAED
:1048100008B1FBF7A7F90120FFF7C2FA08B1FBF7CF
:10482000A1F90820FFF7BEFA08B1FBF79BF9022FA8
:104830000FD104F015FC48B9FBF74AFAFAF7F8FF74
:104840000028F9D1FFF7B0FA0028F5D0FBF78AF974
:10485000F2E7FFF785FBEFE734200020042D00206E
:10486000D02C0020E02C0020153E0200F13F020079
:10487000D13D0200954002006DDF704772DF704746
:1048800079DF70477DDF704764DF70472DE9F04FB7
:1048900085B00488DDF83880BDF83CA0B8F8005039
:1048A0000195002C57D09946002317468B460546A4
:1048B0001C4603E02A880134A24228DD6A6852F8C7
:1048C0002400039000220DF10B0103A8FFF7DCFF89
:1048D000064630BB9DF80B20BA42EBD12BB3B8F89B
:1048E0000020D31953451BDC4A440DF10B0103A8EA
:1048F0000123FFF7C9FF98BBB8F800109DF80B2003
:104900000A44A8F800202A880134A242D6DC13B356
:10491000B8F80030019A013B9B1A9BB2FF2B17D9C4
:104920000C26304605B0BDE8F08FB8F800305A1CB0
:104930003B440233534592B2F2DCA8F8002009F858
:1049400002B0B8F80020013292B2A8F80020CBE7FC
:1049500009F80230E5E70026304605B0BDE8F08FE3
:104960000646304605B0BDE8F08F00BF2DE9F047A0
:1049700000231788138090F82D3084B01446054624
:104980000E46002B49D1AA78002A70D1EA78002A75
:104990002ED16A68A2B1D91CB94225D8022192F958
:1049A0000020F154238801339BB20A212380F15463
:1049B000238801339BB22380F25423880133238060
:1049C0002B89002B40F02A812B8A002B40F03F815D
:1049D0002B8B002B40F054812A6A002A00F0A7801C
:1049E00021888B1DBB4262D90C2004B0BDE8F08742
:1049F000D91CB942F8D80221F154238801339BB263
:104A000001212380F15423880B449BB22380F2546C
:104A100023880B449BB22380BBE7082FE4D902A86C
:104A2000FFF72AFF0028E0D113880822CA54238800
:104A300001339BB21B222380CA542088013080B2EC
:104A40002080062208440DF1090107F044FB238869
:104A50009DF8082006339BB212F0FE0218BF012217
:104A60002380F254238801339BB223808BE70433E5
:104A7000BB42B9D802A8FFF703FF0028B5D12388AD
:104A8000BDF808200321F154238801339BB219217A
:104A90002380F154238801339BB2F1182380F25410
:104AA000120A4A70238802339BB223806EE7138870
:104AB000052B40F2AF806FF4486803EB080080B22A
:104AC0004FF27D3E704540F2A5805088052840F2A7
